{
  "address": "0xbe2D414bd2d03f69b82EAf0b8505aF2b3D6AE34e",
  "abi": [
    {
      "inputs": [],
      "stateMutability": "nonpayable",
      "type": "constructor"
    },
    {
      "anonymous": false,
      "inputs": [
        {
          "indexed": false,
          "internalType": "uint256",
          "name": "indexReto",
          "type": "uint256"
        },
        {
          "indexed": false,
          "internalType": "address",
          "name": "wallet",
          "type": "address"
        }
      ],
      "name": "AnunciarPremioCobrado",
      "type": "event"
    },
    {
      "anonymous": false,
      "inputs": [
        {
          "indexed": false,
          "internalType": "uint256",
          "name": "indexReto",
          "type": "uint256"
        },
        {
          "indexed": false,
          "internalType": "enum Habitos.CumplioReto",
          "name": "resultado",
          "type": "uint8"
        }
      ],
      "name": "NotificacionDeGanador",
      "type": "event"
    },
    {
      "anonymous": false,
      "inputs": [
        {
          "indexed": false,
          "internalType": "uint256",
          "name": "id",
          "type": "uint256"
        },
        {
          "indexed": false,
          "internalType": "address",
          "name": "user1",
          "type": "address"
        }
      ],
      "name": "RetoCreado",
      "type": "event"
    },
    {
      "inputs": [
        {
          "internalType": "uint256",
          "name": "indexReto",
          "type": "uint256"
        }
      ],
      "name": "completarRetoDiario",
      "outputs": [],
      "stateMutability": "nonpayable",
      "type": "function"
    },
    {
      "inputs": [
        {
          "internalType": "string",
          "name": "_name",
          "type": "string"
        }
      ],
      "name": "crearReto",
      "outputs": [],
      "stateMutability": "payable",
      "type": "function"
    },
    {
      "inputs": [
        {
          "internalType": "uint256",
          "name": "indexReto",
          "type": "uint256"
        }
      ],
      "name": "finalizarReto",
      "outputs": [],
      "stateMutability": "nonpayable",
      "type": "function"
    },
    {
      "inputs": [],
      "name": "getRetosActivosPorUser",
      "outputs": [
        {
          "internalType": "uint256[]",
          "name": "",
          "type": "uint256[]"
        }
      ],
      "stateMutability": "view",
      "type": "function"
    },
    {
      "inputs": [
        {
          "internalType": "uint256",
          "name": "indexReto",
          "type": "uint256"
        }
      ],
      "name": "reclamarPremio2",
      "outputs": [],
      "stateMutability": "nonpayable",
      "type": "function"
    },
    {
      "inputs": [
        {
          "internalType": "uint256",
          "name": "",
          "type": "uint256"
        }
      ],
      "name": "retos",
      "outputs": [
        {
          "internalType": "uint256",
          "name": "id",
          "type": "uint256"
        },
        {
          "internalType": "string",
          "name": "name",
          "type": "string"
        },
        {
          "components": [
            {
              "internalType": "address",
              "name": "wallet",
              "type": "address"
            },
            {
              "internalType": "enum Habitos.CumplioReto",
              "name": "cumplioReto",
              "type": "uint8"
            },
            {
              "internalType": "enum Habitos.CobroPremio",
              "name": "cobroPremio",
              "type": "uint8"
            },
            {
              "internalType": "bool[3]",
              "name": "dias",
              "type": "bool[3]"
            }
          ],
          "internalType": "struct Habitos.User",
          "name": "user",
          "type": "tuple"
        },
        {
          "internalType": "uint256",
          "name": "deposito",
          "type": "uint256"
        },
        {
          "internalType": "enum Habitos.State",
          "name": "estado",
          "type": "uint8"
        },
        {
          "internalType": "uint256",
          "name": "fechaComienzo",
          "type": "uint256"
        }
      ],
      "stateMutability": "view",
      "type": "function"
    },
    {
      "inputs": [],
      "name": "totalRetos",
      "outputs": [
        {
          "internalType": "uint256",
          "name": "",
          "type": "uint256"
        }
      ],
      "stateMutability": "view",
      "type": "function"
    }
  ],
  "transactionHash": "0x14d1300f810d251a41440f0217e63343ceaa56b2fa3dc14f15633654e201fe5e",
  "args": [],
  "numDeployments": 2,
  "solcInputHash": "accd112b27906a8b9eb235e51b11d574",
  "bytecode": "0x6080604052670de0b6b3a7640000600155600060025534801561002157600080fd5b50336000806101000a81548173ffffffffffffffffffffffffffffffffffffffff021916908373ffffffffffffffffffffffffffffffffffffffff160217905550612b68806100716000396000f3fe6080604052600436106100705760003560e01c806339cb3c9a1161004e57806339cb3c9a146100f2578063cff212031461010e578063dbaa992f14610137578063df845dd91461016257610070565b80630a5bad6c146100755780630ce0a07a1461009e5780631354bdf8146100c9575b600080fd5b34801561008157600080fd5b5061009c60048036038101906100979190611edd565b6101a4565b005b3480156100aa57600080fd5b506100b36107a6565b6040516100c0919061223b565b60405180910390f35b3480156100d557600080fd5b506100f060048036038101906100eb9190611edd565b61083b565b005b61010c60048036038101906101079190611e9c565b610bf5565b005b34801561011a57600080fd5b5061013560048036038101906101309190611edd565b61100c565b005b34801561014357600080fd5b5061014c6113d4565b604051610159919061237d565b60405180910390f35b34801561016e57600080fd5b5061018960048036038101906101849190611edd565b6113da565b60405161019b969594939291906123ea565b60405180910390f35b80600481815481106101df577f4e487b7100000000000000000000000000000000000000000000000000000000600052603260045260246000fd5b906000526020600020906007020160020160000160009054906101000a900473ffffffffffffffffffffffffffffffffffffffff1673ffffffffffffffffffffffffffffffffffffffff163373ffffffffffffffffffffffffffffffffffffffff1614610281576040517f08c379a0000000000000000000000000000000000000000000000000000000008152600401610278906122dd565b60405180910390fd5b816001808111156102bb577f4e487b7100000000000000000000000000000000000000000000000000000000600052602160045260246000fd5b600482815481106102f5577f4e487b7100000000000000000000000000000000000000000000000000000000600052603260045260246000fd5b906000526020600020906007020160050160009054906101000a900460ff16600181111561034c577f4e487b7100000000000000000000000000000000000000000000000000000000600052602160045260246000fd5b1461038c576040517f08c379a00000000000000000000000000000000000000000000000000000000081526004016103839061229d565b60405180910390fd5b6001808111156103c5577f4e487b7100000000000000000000000000000000000000000000000000000000600052602160045260246000fd5b600484815481106103ff577f4e487b7100000000000000000000000000000000000000000000000000000000600052603260045260246000fd5b906000526020600020906007020160020160000160149054906101000a900460ff166001811115610459577f4e487b7100000000000000000000000000000000000000000000000000000000600052602160045260246000fd5b14610499576040517f08c379a00000000000000000000000000000000000000000000000000000000081526004016104909061227d565b60405180910390fd5b600060018111156104d3577f4e487b7100000000000000000000000000000000000000000000000000000000600052602160045260246000fd5b6004848154811061050d577f4e487b7100000000000000000000000000000000000000000000000000000000600052603260045260246000fd5b906000526020600020906007020160020160000160159054906101000a900460ff166001811115610567577f4e487b7100000000000000000000000000000000000000000000000000000000600052602160045260246000fd5b146105a7576040517f08c379a000000000000000000000000000000000000000000000000000000000815260040161059e906122fd565b60405180910390fd5b600483815481106105e1577f4e487b7100000000000000000000000000000000000000000000000000000000600052603260045260246000fd5b906000526020600020906007020160020160000160009054906101000a900473ffffffffffffffffffffffffffffffffffffffff1673ffffffffffffffffffffffffffffffffffffffff166108fc6001549081150290604051600060405180830381858888f1935050505015801561065d573d6000803e3d6000fd5b506001546004848154811061069b577f4e487b7100000000000000000000000000000000000000000000000000000000600052603260045260246000fd5b906000526020600020906007020160040160008282546106bb91906125b5565b925050819055506001600484815481106106fe577f4e487b7100000000000000000000000000000000000000000000000000000000600052603260045260246000fd5b906000526020600020906007020160020160000160156101000a81548160ff0219169083600181111561075a577f4e487b7100000000000000000000000000000000000000000000000000000000600052602160045260246000fd5b021790555061076883611693565b7f168914fffbfad46639afcc9c0115ab22cab8a9074be0ad7e22fbfaca8b85d3938333604051610799929190612398565b60405180910390a1505050565b6060600360003373ffffffffffffffffffffffffffffffffffffffff1673ffffffffffffffffffffffffffffffffffffffff16815260200190815260200160002080548060200260200160405190810160405280929190818152602001828054801561083157602002820191906000526020600020905b81548152602001906001019080831161081d575b5050505050905090565b8060048181548110610876577f4e487b7100000000000000000000000000000000000000000000000000000000600052603260045260246000fd5b906000526020600020906007020160020160000160009054906101000a900473ffffffffffffffffffffffffffffffffffffffff1673ffffffffffffffffffffffffffffffffffffffff163373ffffffffffffffffffffffffffffffffffffffff1614610918576040517f08c379a000000000000000000000000000000000000000000000000000000000815260040161090f906122dd565b60405180910390fd5b8160006001811115610953577f4e487b7100000000000000000000000000000000000000000000000000000000600052602160045260246000fd5b6004828154811061098d577f4e487b7100000000000000000000000000000000000000000000000000000000600052603260045260246000fd5b906000526020600020906007020160050160009054906101000a900460ff1660018111156109e4577f4e487b7100000000000000000000000000000000000000000000000000000000600052602160045260246000fd5b14610a24576040517f08c379a0000000000000000000000000000000000000000000000000000000008152600401610a1b9061225d565b60405180910390fd5b6002610a2f84611880565b11610a6f576040517f08c379a0000000000000000000000000000000000000000000000000000000008152600401610a669061231d565b60405180910390fd5b600160048481548110610aab577f4e487b7100000000000000000000000000000000000000000000000000000000600052603260045260246000fd5b906000526020600020906007020160050160006101000a81548160ff02191690836001811115610b04577f4e487b7100000000000000000000000000000000000000000000000000000000600052602160045260246000fd5b0217905550610b12836119ff565b60006001811115610b4c577f4e487b7100000000000000000000000000000000000000000000000000000000600052602160045260246000fd5b60048481548110610b86577f4e487b7100000000000000000000000000000000000000000000000000000000600052603260045260246000fd5b906000526020600020906007020160020160000160149054906101000a900460ff166001811115610be0577f4e487b7100000000000000000000000000000000000000000000000000000000600052602160045260246000fd5b1415610bf057610bef83611693565b5b505050565b6001543414610c39576040517f08c379a0000000000000000000000000000000000000000000000000000000008152600401610c309061235d565b60405180910390fd5b60006040518060c00160405280600254815260200183815260200160405180608001604052803373ffffffffffffffffffffffffffffffffffffffff16815260200160006001811115610cb5577f4e487b7100000000000000000000000000000000000000000000000000000000600052602160045260246000fd5b815260200160006001811115610cf4577f4e487b7100000000000000000000000000000000000000000000000000000000600052602160045260246000fd5b8152602001604051806060016040528060001515151581526020016000151515158152602001600015151515815250815250815260200134815260200160006001811115610d6b577f4e487b7100000000000000000000000000000000000000000000000000000000600052602160045260246000fd5b81526020014281525090506004819080600181540180825580915050600190039060005260206000209060070201600090919091909150600082015181600001556020820151816001019080519060200190610dc8929190611c91565b5060408201518160020160008201518160000160006101000a81548173ffffffffffffffffffffffffffffffffffffffff021916908373ffffffffffffffffffffffffffffffffffffffff16021790555060208201518160000160146101000a81548160ff02191690836001811115610e6a577f4e487b7100000000000000000000000000000000000000000000000000000000600052602160045260246000fd5b021790555060408201518160000160156101000a81548160ff02191690836001811115610ec0577f4e487b7100000000000000000000000000000000000000000000000000000000600052602160045260246000fd5b0217905550606082015181600101906003610edc929190611d17565b5050506060820151816004015560808201518160050160006101000a81548160ff02191690836001811115610f3a577f4e487b7100000000000000000000000000000000000000000000000000000000600052602160045260246000fd5b021790555060a0820151816006015550507f381a61e27db90363367908ad325aa61cbb84246330929930a82a9d592eb3af9860025433604051610f7e929190612398565b60405180910390a1600360003373ffffffffffffffffffffffffffffffffffffffff1673ffffffffffffffffffffffffffffffffffffffff1681526020019081526020016000206002549080600181540180825580915050600190039060005260206000200160009091909190915055600160026000828254611001919061252e565b925050819055505050565b8060006001811115611047577f4e487b7100000000000000000000000000000000000000000000000000000000600052602160045260246000fd5b60048281548110611081577f4e487b7100000000000000000000000000000000000000000000000000000000600052603260045260246000fd5b906000526020600020906007020160050160009054906101000a900460ff1660018111156110d8577f4e487b7100000000000000000000000000000000000000000000000000000000600052602160045260246000fd5b14611118576040517f08c379a000000000000000000000000000000000000000000000000000000000815260040161110f9061225d565b60405180910390fd5b8160048181548110611153577f4e487b7100000000000000000000000000000000000000000000000000000000600052603260045260246000fd5b906000526020600020906007020160020160000160009054906101000a900473ffffffffffffffffffffffffffffffffffffffff1673ffffffffffffffffffffffffffffffffffffffff163373ffffffffffffffffffffffffffffffffffffffff16146111f5576040517f08c379a00000000000000000000000000000000000000000000000000000000081526004016111ec906122dd565b60405180910390fd5b600061120084611880565b905060038110611245576040517f08c379a000000000000000000000000000000000000000000000000000000000815260040161123c9061233d565b60405180910390fd5b6000151560048581548110611283577f4e487b7100000000000000000000000000000000000000000000000000000000600052603260045260246000fd5b906000526020600020906007020160020160010182600381106112cf577f4e487b7100000000000000000000000000000000000000000000000000000000600052603260045260246000fd5b602091828204019190069054906101000a900460ff16151514611327576040517f08c379a000000000000000000000000000000000000000000000000000000000815260040161131e906122bd565b60405180910390fd5b600160048581548110611363577f4e487b7100000000000000000000000000000000000000000000000000000000600052603260045260246000fd5b906000526020600020906007020160020160010182600381106113af577f4e487b7100000000000000000000000000000000000000000000000000000000600052603260045260246000fd5b602091828204019190066101000a81548160ff02191690831515021790555050505050565b60025481565b600481815481106113ea57600080fd5b9060005260206000209060070201600091509050806000015490806001018054611413906126e2565b80601f016020809104026020016040519081016040528092919081815260200182805461143f906126e2565b801561148c5780601f106114615761010080835404028352916020019161148c565b820191906000526020600020905b81548152906001019060200180831161146f57829003601f168201915b505050505090806002016040518060800160405290816000820160009054906101000a900473ffffffffffffffffffffffffffffffffffffffff1673ffffffffffffffffffffffffffffffffffffffff1673ffffffffffffffffffffffffffffffffffffffff1681526020016000820160149054906101000a900460ff166001811115611542577f4e487b7100000000000000000000000000000000000000000000000000000000600052602160045260246000fd5b600181111561157a577f4e487b7100000000000000000000000000000000000000000000000000000000600052602160045260246000fd5b81526020016000820160159054906101000a900460ff1660018111156115c9577f4e487b7100000000000000000000000000000000000000000000000000000000600052602160045260246000fd5b6001811115611601577f4e487b7100000000000000000000000000000000000000000000000000000000600052602160045260246000fd5b815260200160018201600380602002604051908101604052809291908260038015611666576020028201916000905b82829054906101000a900460ff161515815260200190600101906020826000010492830192600103820291508084116116305790505b505050505081525050908060040154908060050160009054906101000a900460ff16908060060154905086565b6000600360003373ffffffffffffffffffffffffffffffffffffffff1673ffffffffffffffffffffffffffffffffffffffff168152602001908152602001600020905060005b818054905081101561182c578282828154811061171f577f4e487b7100000000000000000000000000000000000000000000000000000000600052603260045260246000fd5b9060005260206000200154141561181957816001838054905061174291906125b5565b81548110611779577f4e487b7100000000000000000000000000000000000000000000000000000000600052603260045260246000fd5b90600052602060002001548282815481106117bd577f4e487b7100000000000000000000000000000000000000000000000000000000600052603260045260246000fd5b906000526020600020018190555081805480611802577f4e487b7100000000000000000000000000000000000000000000000000000000600052603160045260246000fd5b600190038181906000526020600020016000905590555b808061182490612745565b9150506116d9565b5080600360003373ffffffffffffffffffffffffffffffffffffffff1673ffffffffffffffffffffffffffffffffffffffff16815260200190815260200160002090805461187b929190611db0565b505050565b600081600060018111156118bd577f4e487b7100000000000000000000000000000000000000000000000000000000600052602160045260246000fd5b600482815481106118f7577f4e487b7100000000000000000000000000000000000000000000000000000000600052603260045260246000fd5b906000526020600020906007020160050160009054906101000a900460ff16600181111561194e577f4e487b7100000000000000000000000000000000000000000000000000000000600052602160045260246000fd5b1461198e576040517f08c379a00000000000000000000000000000000000000000000000000000000081526004016119859061225d565b60405180910390fd5b6000603c600485815481106119cc577f4e487b7100000000000000000000000000000000000000000000000000000000600052603260045260246000fd5b906000526020600020906007020160060154426119e991906125b5565b6119f39190612584565b90508092505050919050565b600160048281548110611a3b577f4e487b7100000000000000000000000000000000000000000000000000000000600052603260045260246000fd5b906000526020600020906007020160020160000160146101000a81548160ff02191690836001811115611a97577f4e487b7100000000000000000000000000000000000000000000000000000000600052602160045260246000fd5b021790555060005b6003811015611bf95760048281548110611ae2577f4e487b7100000000000000000000000000000000000000000000000000000000600052603260045260246000fd5b90600052602060002090600702016002016001018160038110611b2e577f4e487b7100000000000000000000000000000000000000000000000000000000600052603260045260246000fd5b602091828204019190069054906101000a900460ff16611be657600060048381548110611b84577f4e487b7100000000000000000000000000000000000000000000000000000000600052603260045260246000fd5b906000526020600020906007020160020160000160146101000a81548160ff02191690836001811115611be0577f4e487b7100000000000000000000000000000000000000000000000000000000600052602160045260246000fd5b02179055505b8080611bf190612745565b915050611a9f565b507fc8b5313552b8be7e6e143e65bc134fdc90527c98af49273034db575290206afe8160048381548110611c56577f4e487b7100000000000000000000000000000000000000000000000000000000600052603260045260246000fd5b906000526020600020906007020160020160000160149054906101000a900460ff16604051611c869291906123c1565b60405180910390a150565b828054611c9d906126e2565b90600052602060002090601f016020900481019282611cbf5760008555611d06565b82601f10611cd857805160ff1916838001178555611d06565b82800160010185558215611d06579182015b82811115611d05578251825591602001919060010190611cea565b5b509050611d139190611e02565b5090565b826003601f01602090048101928215611d9f5791602002820160005b83821115611d7057835183826101000a81548160ff0219169083151502179055509260200192600101602081600001049283019260010302611d33565b8015611d9d5782816101000a81549060ff0219169055600101602081600001049283019260010302611d70565b505b509050611dac9190611e02565b5090565b828054828255906000526020600020908101928215611df15760005260206000209182015b82811115611df0578254825591600101919060010190611dd5565b5b509050611dfe9190611e02565b5090565b5b80821115611e1b576000816000905550600101611e03565b5090565b6000611e32611e2d8461247b565b612456565b905082815260208101848484011115611e4a57600080fd5b611e558482856126a0565b509392505050565b600082601f830112611e6e57600080fd5b8135611e7e848260208601611e1f565b91505092915050565b600081359050611e9681612b1b565b92915050565b600060208284031215611eae57600080fd5b600082013567ffffffffffffffff811115611ec857600080fd5b611ed484828501611e5d565b91505092915050565b600060208284031215611eef57600080fd5b6000611efd84828501611e87565b91505092915050565b6000611f128383612009565b60208301905092915050565b6000611f2a838361221d565b60208301905092915050565b611f3f816125e9565b82525050565b611f4e816125e9565b82525050565b611f5d816124c6565b611f678184612501565b9250611f72826124ac565b8060005b83811015611fa3578151611f8a8782611f06565b9650611f95836124e7565b925050600181019050611f76565b505050505050565b6000611fb6826124d1565b611fc0818561250c565b9350611fcb836124b6565b8060005b83811015611ffc578151611fe38882611f1e565b9750611fee836124f4565b925050600181019050611fcf565b5085935050505092915050565b612012816125fb565b82525050565b6120218161266a565b82525050565b6120308161267c565b82525050565b61203f8161267c565b82525050565b61204e8161268e565b82525050565b600061205f826124dc565b612069818561251d565b93506120798185602086016126af565b61208281612879565b840191505092915050565b600061209a601d8361251d565b91506120a58261288a565b602082019050919050565b60006120bd60288361251d565b91506120c8826128b3565b604082019050919050565b60006120e060208361251d565b91506120eb82612902565b602082019050919050565b600061210360248361251d565b915061210e8261292b565b604082019050919050565b600061212660198361251d565b91506121318261297a565b602082019050919050565b6000612149602b8361251d565b9150612154826129a3565b604082019050919050565b600061216c60268361251d565b9150612177826129f2565b604082019050919050565b600061218f60278361251d565b915061219a82612a41565b604082019050919050565b60006121b260398361251d565b91506121bd82612a90565b604082019050919050565b60c0820160008201516121de6000850182611f36565b5060208201516121f16020850182612027565b5060408201516122046040850182612018565b5060608201516122176060850182611f54565b50505050565b61222681612660565b82525050565b61223581612660565b82525050565b600060208201905081810360008301526122558184611fab565b905092915050565b600060208201905081810360008301526122768161208d565b9050919050565b60006020820190508181036000830152612296816120b0565b9050919050565b600060208201905081810360008301526122b6816120d3565b9050919050565b600060208201905081810360008301526122d6816120f6565b9050919050565b600060208201905081810360008301526122f681612119565b9050919050565b600060208201905081810360008301526123168161213c565b9050919050565b600060208201905081810360008301526123368161215f565b9050919050565b6000602082019050818103600083015261235681612182565b9050919050565b60006020820190508181036000830152612376816121a5565b9050919050565b6000602082019050612392600083018461222c565b92915050565b60006040820190506123ad600083018561222c565b6123ba6020830184611f45565b9392505050565b60006040820190506123d6600083018561222c565b6123e36020830184612036565b9392505050565b600061016082019050612400600083018961222c565b81810360208301526124128188612054565b905061242160408301876121c8565b61242f61010083018661222c565b61243d610120830185612045565b61244b61014083018461222c565b979650505050505050565b6000612460612471565b905061246c8282612714565b919050565b6000604051905090565b600067ffffffffffffffff8211156124965761249561284a565b5b61249f82612879565b9050602081019050919050565b6000819050919050565b6000819050602082019050919050565b600060039050919050565b600081519050919050565b600081519050919050565b6000602082019050919050565b6000602082019050919050565b600081905092915050565b600082825260208201905092915050565b600082825260208201905092915050565b600061253982612660565b915061254483612660565b9250827fffffffffffffffffffffffffffffffffffffffffffffffffffffffffffffffff038211156125795761257861278e565b5b828201905092915050565b600061258f82612660565b915061259a83612660565b9250826125aa576125a96127bd565b5b828204905092915050565b60006125c082612660565b91506125cb83612660565b9250828210156125de576125dd61278e565b5b828203905092915050565b60006125f482612640565b9050919050565b60008115159050919050565b600081905061261582612adf565b919050565b600081905061262882612af3565b919050565b600081905061263b82612b07565b919050565b600073ffffffffffffffffffffffffffffffffffffffff82169050919050565b6000819050919050565b600061267582612607565b9050919050565b60006126878261261a565b9050919050565b60006126998261262d565b9050919050565b82818337600083830152505050565b60005b838110156126cd5780820151818401526020810190506126b2565b838111156126dc576000848401525b50505050565b600060028204905060018216806126fa57607f821691505b6020821081141561270e5761270d61281b565b5b50919050565b61271d82612879565b810181811067ffffffffffffffff8211171561273c5761273b61284a565b5b80604052505050565b600061275082612660565b91507fffffffffffffffffffffffffffffffffffffffffffffffffffffffffffffffff8214156127835761278261278e565b5b600182019050919050565b7f4e487b7100000000000000000000000000000000000000000000000000000000600052601160045260246000fd5b7f4e487b7100000000000000000000000000000000000000000000000000000000600052601260045260246000fd5b7f4e487b7100000000000000000000000000000000000000000000000000000000600052602160045260246000fd5b7f4e487b7100000000000000000000000000000000000000000000000000000000600052602260045260246000fd5b7f4e487b7100000000000000000000000000000000000000000000000000000000600052604160045260246000fd5b6000601f19601f8301169050919050565b7f45737465207265746f206e6f206573746120656e20766967656e636961000000600082015250565b7f456c207265746f206e6f2066756520737570657261646f20706f72206573746560008201527f207573756172696f000000000000000000000000000000000000000000000000602082015250565b7f456c207265746f20746f6461766961206e6f2068612066696e616c697a61646f600082015250565b7f59612073652063756d706c696f20656c207265746f2064656c2064696120646560008201527f20686f7900000000000000000000000000000000000000000000000000000000602082015250565b7f4e6f20657320656c205573756172696f2064656c207265746f00000000000000600082015250565b7f45737465207072656d696f2079612066756520636f627261646f20706f72206560008201527f737465207573756172696f000000000000000000000000000000000000000000602082015250565b7f546f6461766961206e6f207472616e7363757272696f20656c207469656d706f60008201527f20746f74616c0000000000000000000000000000000000000000000000000000602082015250565b7f5961207465726d696e6f20656c207469656d706f2064656c207265746f20646560008201527f2033206469617300000000000000000000000000000000000000000000000000602082015250565b7f456c206d6f6e746f206465706f73697461646f206e6f20657320656c20636f7260008201527f726563746f2c20736520726571756965726520312043656c6f00000000000000602082015250565b60028110612af057612aef6127ec565b5b50565b60028110612b0457612b036127ec565b5b50565b60028110612b1857612b176127ec565b5b50565b612b2481612660565b8114612b2f57600080fd5b5056fea264697066735822122019bbbbb0ad62b67b70515c04d3243965b47080e62ddbc18f16bf04c30775675564736f6c63430008040033",
  "devdoc": {
    "kind": "dev",
    "methods": {},
    "version": 1
  },
  "userdoc": {
    "kind": "user",
    "methods": {},
    "version": 1
  },
  "storageLayout": {
    "storage": [
      {
        "astId": 3,
        "contract": "contracts/Habitos.sol:Habitos",
        "label": "author",
        "offset": 0,
        "slot": "0",
        "type": "t_address"
      },
      {
        "astId": 15,
        "contract": "contracts/Habitos.sol:Habitos",
        "label": "montoReto",
        "offset": 0,
        "slot": "1",
        "type": "t_uint256"
      },
      {
        "astId": 18,
        "contract": "contracts/Habitos.sol:Habitos",
        "label": "totalRetos",
        "offset": 0,
        "slot": "2",
        "type": "t_uint256"
      },
      {
        "astId": 23,
        "contract": "contracts/Habitos.sol:Habitos",
        "label": "retosPorUser",
        "offset": 0,
        "slot": "3",
        "type": "t_mapping(t_address,t_array(t_uint256)dyn_storage)"
      },
      {
        "astId": 64,
        "contract": "contracts/Habitos.sol:Habitos",
        "label": "retos",
        "offset": 0,
        "slot": "4",
        "type": "t_array(t_struct(Reto)60_storage)dyn_storage"
      }
    ],
    "types": {
      "t_address": {
        "encoding": "inplace",
        "label": "address",
        "numberOfBytes": "20"
      },
      "t_array(t_bool)3_storage": {
        "base": "t_bool",
        "encoding": "inplace",
        "label": "bool[3]",
        "numberOfBytes": "32"
      },
      "t_array(t_struct(Reto)60_storage)dyn_storage": {
        "base": "t_struct(Reto)60_storage",
        "encoding": "dynamic_array",
        "label": "struct Habitos.Reto[]",
        "numberOfBytes": "32"
      },
      "t_array(t_uint256)dyn_storage": {
        "base": "t_uint256",
        "encoding": "dynamic_array",
        "label": "uint256[]",
        "numberOfBytes": "32"
      },
      "t_bool": {
        "encoding": "inplace",
        "label": "bool",
        "numberOfBytes": "1"
      },
      "t_enum(CobroPremio)12": {
        "encoding": "inplace",
        "label": "enum Habitos.CobroPremio",
        "numberOfBytes": "1"
      },
      "t_enum(CumplioReto)9": {
        "encoding": "inplace",
        "label": "enum Habitos.CumplioReto",
        "numberOfBytes": "1"
      },
      "t_enum(State)6": {
        "encoding": "inplace",
        "label": "enum Habitos.State",
        "numberOfBytes": "1"
      },
      "t_mapping(t_address,t_array(t_uint256)dyn_storage)": {
        "encoding": "mapping",
        "key": "t_address",
        "label": "mapping(address => uint256[])",
        "numberOfBytes": "32",
        "value": "t_array(t_uint256)dyn_storage"
      },
      "t_string_storage": {
        "encoding": "bytes",
        "label": "string",
        "numberOfBytes": "32"
      },
      "t_struct(Reto)60_storage": {
        "encoding": "inplace",
        "label": "struct Habitos.Reto",
        "members": [
          {
            "astId": 47,
            "contract": "contracts/Habitos.sol:Habitos",
            "label": "id",
            "offset": 0,
            "slot": "0",
            "type": "t_uint256"
          },
          {
            "astId": 49,
            "contract": "contracts/Habitos.sol:Habitos",
            "label": "name",
            "offset": 0,
            "slot": "1",
            "type": "t_string_storage"
          },
          {
            "astId": 52,
            "contract": "contracts/Habitos.sol:Habitos",
            "label": "user",
            "offset": 0,
            "slot": "2",
            "type": "t_struct(User)45_storage"
          },
          {
            "astId": 54,
            "contract": "contracts/Habitos.sol:Habitos",
            "label": "deposito",
            "offset": 0,
            "slot": "4",
            "type": "t_uint256"
          },
          {
            "astId": 57,
            "contract": "contracts/Habitos.sol:Habitos",
            "label": "estado",
            "offset": 0,
            "slot": "5",
            "type": "t_enum(State)6"
          },
          {
            "astId": 59,
            "contract": "contracts/Habitos.sol:Habitos",
            "label": "fechaComienzo",
            "offset": 0,
            "slot": "6",
            "type": "t_uint256"
          }
        ],
        "numberOfBytes": "224"
      },
      "t_struct(User)45_storage": {
        "encoding": "inplace",
        "label": "struct Habitos.User",
        "members": [
          {
            "astId": 34,
            "contract": "contracts/Habitos.sol:Habitos",
            "label": "wallet",
            "offset": 0,
            "slot": "0",
            "type": "t_address"
          },
          {
            "astId": 37,
            "contract": "contracts/Habitos.sol:Habitos",
            "label": "cumplioReto",
            "offset": 20,
            "slot": "0",
            "type": "t_enum(CumplioReto)9"
          },
          {
            "astId": 40,
            "contract": "contracts/Habitos.sol:Habitos",
            "label": "cobroPremio",
            "offset": 21,
            "slot": "0",
            "type": "t_enum(CobroPremio)12"
          },
          {
            "astId": 44,
            "contract": "contracts/Habitos.sol:Habitos",
            "label": "dias",
            "offset": 0,
            "slot": "1",
            "type": "t_array(t_bool)3_storage"
          }
        ],
        "numberOfBytes": "64"
      },
      "t_uint256": {
        "encoding": "inplace",
        "label": "uint256",
        "numberOfBytes": "32"
      }
    }
  }
}