{
  "address": "0xBe3D54DCbF07FF60B72d71daf542A8437524165a",
  "abi": [
    {
      "inputs": [],
      "stateMutability": "nonpayable",
      "type": "constructor"
    },
    {
      "anonymous": false,
      "inputs": [
        {
          "indexed": false,
          "internalType": "uint256",
          "name": "indexReto",
          "type": "uint256"
        },
        {
          "indexed": false,
          "internalType": "address",
          "name": "wallet",
          "type": "address"
        }
      ],
      "name": "AnunciarPremioCobrado",
      "type": "event"
    },
    {
      "anonymous": false,
      "inputs": [
        {
          "indexed": false,
          "internalType": "enum Habitos.CumplioReto",
          "name": "user1Gano",
          "type": "uint8"
        },
        {
          "indexed": false,
          "internalType": "enum Habitos.CumplioReto",
          "name": "user2Gano",
          "type": "uint8"
        }
      ],
      "name": "NotificacionDeGanador",
      "type": "event"
    },
    {
      "anonymous": false,
      "inputs": [
        {
          "indexed": false,
          "internalType": "uint256",
          "name": "id",
          "type": "uint256"
        },
        {
          "indexed": false,
          "internalType": "address",
          "name": "user2",
          "type": "address"
        }
      ],
      "name": "RetoAceptado",
      "type": "event"
    },
    {
      "anonymous": false,
      "inputs": [
        {
          "indexed": false,
          "internalType": "uint256",
          "name": "id",
          "type": "uint256"
        }
      ],
      "name": "RetoAnulado",
      "type": "event"
    },
    {
      "anonymous": false,
      "inputs": [
        {
          "indexed": false,
          "internalType": "uint256",
          "name": "id",
          "type": "uint256"
        },
        {
          "indexed": false,
          "internalType": "address",
          "name": "user1",
          "type": "address"
        },
        {
          "indexed": false,
          "internalType": "address",
          "name": "user2",
          "type": "address"
        }
      ],
      "name": "RetoCreado",
      "type": "event"
    },
    {
      "inputs": [
        {
          "internalType": "uint256",
          "name": "indexReto",
          "type": "uint256"
        }
      ],
      "name": "aceptarReto",
      "outputs": [],
      "stateMutability": "payable",
      "type": "function"
    },
    {
      "inputs": [
        {
          "internalType": "uint256",
          "name": "indexReto",
          "type": "uint256"
        }
      ],
      "name": "anularReto",
      "outputs": [],
      "stateMutability": "nonpayable",
      "type": "function"
    },
    {
      "inputs": [
        {
          "internalType": "uint256",
          "name": "indexReto",
          "type": "uint256"
        }
      ],
      "name": "completarRetoDiario",
      "outputs": [],
      "stateMutability": "nonpayable",
      "type": "function"
    },
    {
      "inputs": [
        {
          "internalType": "uint256",
          "name": "_id",
          "type": "uint256"
        },
        {
          "internalType": "address",
          "name": "_user2",
          "type": "address"
        }
      ],
      "name": "crearReto",
      "outputs": [],
      "stateMutability": "payable",
      "type": "function"
    },
    {
      "inputs": [
        {
          "internalType": "uint256",
          "name": "indexReto",
          "type": "uint256"
        }
      ],
      "name": "finalizarReto",
      "outputs": [],
      "stateMutability": "nonpayable",
      "type": "function"
    },
    {
      "inputs": [
        {
          "internalType": "uint256",
          "name": "indexReto",
          "type": "uint256"
        }
      ],
      "name": "reclamarPremio2",
      "outputs": [],
      "stateMutability": "nonpayable",
      "type": "function"
    },
    {
      "inputs": [
        {
          "internalType": "uint256",
          "name": "",
          "type": "uint256"
        }
      ],
      "name": "retos",
      "outputs": [
        {
          "internalType": "uint256",
          "name": "id",
          "type": "uint256"
        },
        {
          "components": [
            {
              "internalType": "address",
              "name": "wallet",
              "type": "address"
            },
            {
              "internalType": "enum Habitos.CumplioReto",
              "name": "cumplioReto",
              "type": "uint8"
            },
            {
              "internalType": "enum Habitos.CobroPremio",
              "name": "cobroPremio",
              "type": "uint8"
            },
            {
              "internalType": "bool[3]",
              "name": "dias",
              "type": "bool[3]"
            }
          ],
          "internalType": "struct Habitos.User",
          "name": "user1",
          "type": "tuple"
        },
        {
          "components": [
            {
              "internalType": "address",
              "name": "wallet",
              "type": "address"
            },
            {
              "internalType": "enum Habitos.CumplioReto",
              "name": "cumplioReto",
              "type": "uint8"
            },
            {
              "internalType": "enum Habitos.CobroPremio",
              "name": "cobroPremio",
              "type": "uint8"
            },
            {
              "internalType": "bool[3]",
              "name": "dias",
              "type": "bool[3]"
            }
          ],
          "internalType": "struct Habitos.User",
          "name": "user2",
          "type": "tuple"
        },
        {
          "internalType": "uint256",
          "name": "montoTotalDepositado",
          "type": "uint256"
        },
        {
          "internalType": "enum Habitos.State",
          "name": "estado",
          "type": "uint8"
        },
        {
          "internalType": "uint256",
          "name": "fechaComienzo",
          "type": "uint256"
        }
      ],
      "stateMutability": "view",
      "type": "function"
    }
  ],
  "transactionHash": "0x0bc20628d3d472014b0c745f1d73fe828a612d1ed5ae40805b7ddf3dcaf11ecc",
  "args": [],
  "numDeployments": 1,
  "solcInputHash": "984391a234dd55f400b8936c474bf87f",
  "bytecode": "0x6080604052670de0b6b3a764000060015534801561001c57600080fd5b50336000806101000a81548173ffffffffffffffffffffffffffffffffffffffff021916908373ffffffffffffffffffffffffffffffffffffffff1602179055506144528061006c6000396000f3fe6080604052600436106100705760003560e01c8063928364021161004e57806392836402146100f0578063cff212031461010c578063d0398b0214610135578063df845dd91461015157610070565b80630a5bad6c146100755780631354bdf81461009e578063466cbe75146100c7575b600080fd5b34801561008157600080fd5b5061009c60048036038101906100979190613710565b610193565b005b3480156100aa57600080fd5b506100c560048036038101906100c09190613710565b611103565b005b3480156100d357600080fd5b506100ee60048036038101906100e99190613710565b611482565b005b61010a60048036038101906101059190613710565b61186f565b005b34801561011857600080fd5b50610133600480360381019061012e9190613710565b611c71565b005b61014f600480360381019061014a9190613739565b61230e565b005b34801561015d57600080fd5b5061017860048036038101906101739190613710565b6128dc565b60405161018a96959493929190613cff565b60405180910390f35b80600260038111156101ce577f4e487b7100000000000000000000000000000000000000000000000000000000600052602160045260246000fd5b60028281548110610208577f4e487b7100000000000000000000000000000000000000000000000000000000600052603260045260246000fd5b906000526020600020906008020160060160009054906101000a900460ff16600381111561025f577f4e487b7100000000000000000000000000000000000000000000000000000000600052602160045260246000fd5b1461029f576040517f08c379a000000000000000000000000000000000000000000000000000000000815260040161029690613b24565b60405180910390fd5b81600281815481106102da577f4e487b7100000000000000000000000000000000000000000000000000000000600052603260045260246000fd5b906000526020600020906008020160010160000160009054906101000a900473ffffffffffffffffffffffffffffffffffffffff1673ffffffffffffffffffffffffffffffffffffffff163373ffffffffffffffffffffffffffffffffffffffff1614806103e157506002818154811061037d577f4e487b7100000000000000000000000000000000000000000000000000000000600052603260045260246000fd5b906000526020600020906008020160030160000160009054906101000a900473ffffffffffffffffffffffffffffffffffffffff1673ffffffffffffffffffffffffffffffffffffffff163373ffffffffffffffffffffffffffffffffffffffff16145b610420576040517f08c379a000000000000000000000000000000000000000000000000000000000815260040161041790613bc4565b60405180910390fd5b6002838154811061045a577f4e487b7100000000000000000000000000000000000000000000000000000000600052603260045260246000fd5b906000526020600020906008020160010160000160009054906101000a900473ffffffffffffffffffffffffffffffffffffffff1673ffffffffffffffffffffffffffffffffffffffff163373ffffffffffffffffffffffffffffffffffffffff161415610ae257600160028111156104fc577f4e487b7100000000000000000000000000000000000000000000000000000000600052602160045260246000fd5b60028481548110610536577f4e487b7100000000000000000000000000000000000000000000000000000000600052603260045260246000fd5b906000526020600020906008020160010160000160149054906101000a900460ff166002811115610590577f4e487b7100000000000000000000000000000000000000000000000000000000600052602160045260246000fd5b14156105d1576040517f08c379a00000000000000000000000000000000000000000000000000000000081526004016105c890613ac4565b60405180910390fd5b6000600181111561060b577f4e487b7100000000000000000000000000000000000000000000000000000000600052602160045260246000fd5b60028481548110610645577f4e487b7100000000000000000000000000000000000000000000000000000000600052603260045260246000fd5b906000526020600020906008020160010160000160159054906101000a900460ff16600181111561069f577f4e487b7100000000000000000000000000000000000000000000000000000000600052602160045260246000fd5b146106df576040517f08c379a00000000000000000000000000000000000000000000000000000000081526004016106d690613b84565b60405180910390fd5b60006002811115610719577f4e487b7100000000000000000000000000000000000000000000000000000000600052602160045260246000fd5b60028481548110610753577f4e487b7100000000000000000000000000000000000000000000000000000000600052603260045260246000fd5b906000526020600020906008020160010160000160149054906101000a900460ff1660028111156107ad577f4e487b7100000000000000000000000000000000000000000000000000000000600052602160045260246000fd5b14156108eb57600283815481106107ed577f4e487b7100000000000000000000000000000000000000000000000000000000600052603260045260246000fd5b906000526020600020906008020160010160000160009054906101000a900473ffffffffffffffffffffffffffffffffffffffff1673ffffffffffffffffffffffffffffffffffffffff166108fc600260015461084a9190613e29565b9081150290604051600060405180830381858888f19350505050158015610875573d6000803e3d6000fd5b5060026001546108859190613e29565b600284815481106108bf577f4e487b7100000000000000000000000000000000000000000000000000000000600052603260045260246000fd5b906000526020600020906008020160050160008282546108df9190613e83565b92505081905550610a07565b60028381548110610925577f4e487b7100000000000000000000000000000000000000000000000000000000600052603260045260246000fd5b906000526020600020906008020160010160000160009054906101000a900473ffffffffffffffffffffffffffffffffffffffff1673ffffffffffffffffffffffffffffffffffffffff166108fc6001549081150290604051600060405180830381858888f193505050501580156109a1573d6000803e3d6000fd5b50600154600284815481106109df577f4e487b7100000000000000000000000000000000000000000000000000000000600052603260045260246000fd5b906000526020600020906008020160050160008282546109ff9190613e83565b925050819055505b600160028481548110610a43577f4e487b7100000000000000000000000000000000000000000000000000000000600052603260045260246000fd5b906000526020600020906008020160010160000160156101000a81548160ff02191690836001811115610a9f577f4e487b7100000000000000000000000000000000000000000000000000000000600052602160045260246000fd5b02179055507f168914fffbfad46639afcc9c0115ab22cab8a9074be0ad7e22fbfaca8b85d3938333604051610ad5929190613c9f565b60405180910390a16110fe565b60016002811115610b1c577f4e487b7100000000000000000000000000000000000000000000000000000000600052602160045260246000fd5b60028481548110610b56577f4e487b7100000000000000000000000000000000000000000000000000000000600052603260045260246000fd5b906000526020600020906008020160030160000160149054906101000a900460ff166002811115610bb0577f4e487b7100000000000000000000000000000000000000000000000000000000600052602160045260246000fd5b1415610bf1576040517f08c379a0000000000000000000000000000000000000000000000000000000008152600401610be890613ac4565b60405180910390fd5b60006001811115610c2b577f4e487b7100000000000000000000000000000000000000000000000000000000600052602160045260246000fd5b60028481548110610c65577f4e487b7100000000000000000000000000000000000000000000000000000000600052603260045260246000fd5b906000526020600020906008020160030160000160159054906101000a900460ff166001811115610cbf577f4e487b7100000000000000000000000000000000000000000000000000000000600052602160045260246000fd5b14610cff576040517f08c379a0000000000000000000000000000000000000000000000000000000008152600401610cf690613b84565b60405180910390fd5b60006002811115610d39577f4e487b7100000000000000000000000000000000000000000000000000000000600052602160045260246000fd5b60028481548110610d73577f4e487b7100000000000000000000000000000000000000000000000000000000600052603260045260246000fd5b906000526020600020906008020160030160000160149054906101000a900460ff166002811115610dcd577f4e487b7100000000000000000000000000000000000000000000000000000000600052602160045260246000fd5b1415610f0b5760028381548110610e0d577f4e487b7100000000000000000000000000000000000000000000000000000000600052603260045260246000fd5b906000526020600020906008020160030160000160009054906101000a900473ffffffffffffffffffffffffffffffffffffffff1673ffffffffffffffffffffffffffffffffffffffff166108fc6002600154610e6a9190613e29565b9081150290604051600060405180830381858888f19350505050158015610e95573d6000803e3d6000fd5b506002600154610ea59190613e29565b60028481548110610edf577f4e487b7100000000000000000000000000000000000000000000000000000000600052603260045260246000fd5b90600052602060002090600802016005016000828254610eff9190613e83565b92505081905550611027565b60028381548110610f45577f4e487b7100000000000000000000000000000000000000000000000000000000600052603260045260246000fd5b906000526020600020906008020160030160000160009054906101000a900473ffffffffffffffffffffffffffffffffffffffff1673ffffffffffffffffffffffffffffffffffffffff166108fc6001549081150290604051600060405180830381858888f19350505050158015610fc1573d6000803e3d6000fd5b5060015460028481548110610fff577f4e487b7100000000000000000000000000000000000000000000000000000000600052603260045260246000fd5b9060005260206000209060080201600501600082825461101f9190613e83565b925050819055505b600160028481548110611063577f4e487b7100000000000000000000000000000000000000000000000000000000600052603260045260246000fd5b906000526020600020906008020160030160000160156101000a81548160ff021916908360018111156110bf577f4e487b7100000000000000000000000000000000000000000000000000000000600052602160045260246000fd5b02179055507f168914fffbfad46639afcc9c0115ab22cab8a9074be0ad7e22fbfaca8b85d39383336040516110f5929190613c9f565b60405180910390a15b505050565b806002818154811061113e577f4e487b7100000000000000000000000000000000000000000000000000000000600052603260045260246000fd5b906000526020600020906008020160010160000160009054906101000a900473ffffffffffffffffffffffffffffffffffffffff1673ffffffffffffffffffffffffffffffffffffffff163373ffffffffffffffffffffffffffffffffffffffff1614806112455750600281815481106111e1577f4e487b7100000000000000000000000000000000000000000000000000000000600052603260045260246000fd5b906000526020600020906008020160030160000160009054906101000a900473ffffffffffffffffffffffffffffffffffffffff1673ffffffffffffffffffffffffffffffffffffffff163373ffffffffffffffffffffffffffffffffffffffff16145b611284576040517f08c379a000000000000000000000000000000000000000000000000000000000815260040161127b90613bc4565b60405180910390fd5b81600160038111156112bf577f4e487b7100000000000000000000000000000000000000000000000000000000600052602160045260246000fd5b600282815481106112f9577f4e487b7100000000000000000000000000000000000000000000000000000000600052603260045260246000fd5b906000526020600020906008020160060160009054906101000a900460ff166003811115611350577f4e487b7100000000000000000000000000000000000000000000000000000000600052602160045260246000fd5b14611390576040517f08c379a000000000000000000000000000000000000000000000000000000000815260040161138790613ae4565b60405180910390fd5b600261139b84612ce5565b116113db576040517f08c379a00000000000000000000000000000000000000000000000000000000081526004016113d290613be4565b60405180910390fd5b6002808481548110611416577f4e487b7100000000000000000000000000000000000000000000000000000000600052603260045260246000fd5b906000526020600020906008020160060160006101000a81548160ff0219169083600381111561146f577f4e487b7100000000000000000000000000000000000000000000000000000000600052602160045260246000fd5b021790555061147d83612e64565b505050565b80600281815481106114bd577f4e487b7100000000000000000000000000000000000000000000000000000000600052603260045260246000fd5b906000526020600020906008020160010160000160009054906101000a900473ffffffffffffffffffffffffffffffffffffffff1673ffffffffffffffffffffffffffffffffffffffff163373ffffffffffffffffffffffffffffffffffffffff161461155f576040517f08c379a000000000000000000000000000000000000000000000000000000000815260040161155690613c44565b60405180910390fd5b816000600381111561159a577f4e487b7100000000000000000000000000000000000000000000000000000000600052602160045260246000fd5b600282815481106115d4577f4e487b7100000000000000000000000000000000000000000000000000000000600052603260045260246000fd5b906000526020600020906008020160060160009054906101000a900460ff16600381111561162b577f4e487b7100000000000000000000000000000000000000000000000000000000600052602160045260246000fd5b1461166b576040517f08c379a000000000000000000000000000000000000000000000000000000000815260040161166290613b04565b60405180910390fd5b3373ffffffffffffffffffffffffffffffffffffffff166108fc600285815481106116bf577f4e487b7100000000000000000000000000000000000000000000000000000000600052603260045260246000fd5b9060005260206000209060080201600501549081150290604051600060405180830381858888f193505050501580156116fc573d6000803e3d6000fd5b50600360028481548110611739577f4e487b7100000000000000000000000000000000000000000000000000000000600052603260045260246000fd5b906000526020600020906008020160060160006101000a81548160ff02191690836003811115611792577f4e487b7100000000000000000000000000000000000000000000000000000000600052602160045260246000fd5b02179055506000600284815481106117d3577f4e487b7100000000000000000000000000000000000000000000000000000000600052603260045260246000fd5b9060005260206000209060080201600501819055507fea31a82ce05e5be27788f88130744729a97ec261f2af4982e51296756f81f34460028481548110611843577f4e487b7100000000000000000000000000000000000000000000000000000000600052603260045260246000fd5b9060005260206000209060080201600001546040516118629190613c84565b60405180910390a1505050565b80600060038111156118aa577f4e487b7100000000000000000000000000000000000000000000000000000000600052602160045260246000fd5b600282815481106118e4577f4e487b7100000000000000000000000000000000000000000000000000000000600052603260045260246000fd5b906000526020600020906008020160060160009054906101000a900460ff16600381111561193b577f4e487b7100000000000000000000000000000000000000000000000000000000600052602160045260246000fd5b1461197b576040517f08c379a000000000000000000000000000000000000000000000000000000000815260040161197290613b04565b60405180910390fd5b81600281815481106119b6577f4e487b7100000000000000000000000000000000000000000000000000000000600052603260045260246000fd5b906000526020600020906008020160030160000160009054906101000a900473ffffffffffffffffffffffffffffffffffffffff1673ffffffffffffffffffffffffffffffffffffffff163373ffffffffffffffffffffffffffffffffffffffff1614611a58576040517f08c379a0000000000000000000000000000000000000000000000000000000008152600401611a4f90613c04565b60405180910390fd5b6001543414611a9c576040517f08c379a0000000000000000000000000000000000000000000000000000000008152600401611a9390613b44565b60405180910390fd5b3460028481548110611ad7577f4e487b7100000000000000000000000000000000000000000000000000000000600052603260045260246000fd5b90600052602060002090600802016005016000828254611af79190613da2565b92505081905550600160028481548110611b3a577f4e487b7100000000000000000000000000000000000000000000000000000000600052603260045260246000fd5b906000526020600020906008020160060160006101000a81548160ff02191690836003811115611b93577f4e487b7100000000000000000000000000000000000000000000000000000000600052602160045260246000fd5b02179055504260028481548110611bd3577f4e487b7100000000000000000000000000000000000000000000000000000000600052603260045260246000fd5b9060005260206000209060080201600701819055507ffedfac9db79456284e7724a16aff4f782ce3f2bef838a7ff3516bb27c28192c260028481548110611c43577f4e487b7100000000000000000000000000000000000000000000000000000000600052603260045260246000fd5b90600052602060002090600802016000015433604051611c64929190613c9f565b60405180910390a1505050565b8060016003811115611cac577f4e487b7100000000000000000000000000000000000000000000000000000000600052602160045260246000fd5b60028281548110611ce6577f4e487b7100000000000000000000000000000000000000000000000000000000600052603260045260246000fd5b906000526020600020906008020160060160009054906101000a900460ff166003811115611d3d577f4e487b7100000000000000000000000000000000000000000000000000000000600052602160045260246000fd5b14611d7d576040517f08c379a0000000000000000000000000000000000000000000000000000000008152600401611d7490613ae4565b60405180910390fd5b8160028181548110611db8577f4e487b7100000000000000000000000000000000000000000000000000000000600052603260045260246000fd5b906000526020600020906008020160010160000160009054906101000a900473ffffffffffffffffffffffffffffffffffffffff1673ffffffffffffffffffffffffffffffffffffffff163373ffffffffffffffffffffffffffffffffffffffff161480611ebf575060028181548110611e5b577f4e487b7100000000000000000000000000000000000000000000000000000000600052603260045260246000fd5b906000526020600020906008020160030160000160009054906101000a900473ffffffffffffffffffffffffffffffffffffffff1673ffffffffffffffffffffffffffffffffffffffff163373ffffffffffffffffffffffffffffffffffffffff16145b611efe576040517f08c379a0000000000000000000000000000000000000000000000000000000008152600401611ef590613bc4565b60405180910390fd5b6000611f0984612ce5565b905060038110611f4e576040517f08c379a0000000000000000000000000000000000000000000000000000000008152600401611f4590613c24565b60405180910390fd5b60028481548110611f88577f4e487b7100000000000000000000000000000000000000000000000000000000600052603260045260246000fd5b906000526020600020906008020160010160000160009054906101000a900473ffffffffffffffffffffffffffffffffffffffff1673ffffffffffffffffffffffffffffffffffffffff163373ffffffffffffffffffffffffffffffffffffffff16141561217e57600015156002858154811061202e577f4e487b7100000000000000000000000000000000000000000000000000000000600052603260045260246000fd5b9060005260206000209060080201600101600101826003811061207a577f4e487b7100000000000000000000000000000000000000000000000000000000600052603260045260246000fd5b602091828204019190069054906101000a900460ff161515146120d2576040517f08c379a00000000000000000000000000000000000000000000000000000000081526004016120c990613b64565b60405180910390fd5b60016002858154811061210e577f4e487b7100000000000000000000000000000000000000000000000000000000600052603260045260246000fd5b9060005260206000209060080201600101600101826003811061215a577f4e487b7100000000000000000000000000000000000000000000000000000000600052603260045260246000fd5b602091828204019190066101000a81548160ff021916908315150217905550612308565b60001515600285815481106121bc577f4e487b7100000000000000000000000000000000000000000000000000000000600052603260045260246000fd5b90600052602060002090600802016003016001018260038110612208577f4e487b7100000000000000000000000000000000000000000000000000000000600052603260045260246000fd5b602091828204019190069054906101000a900460ff16151514612260576040517f08c379a000000000000000000000000000000000000000000000000000000000815260040161225790613b64565b60405180910390fd5b60016002858154811061229c577f4e487b7100000000000000000000000000000000000000000000000000000000600052603260045260246000fd5b906000526020600020906008020160030160010182600381106122e8577f4e487b7100000000000000000000000000000000000000000000000000000000600052603260045260246000fd5b602091828204019190066101000a81548160ff0219169083151502179055505b50505050565b8073ffffffffffffffffffffffffffffffffffffffff163373ffffffffffffffffffffffffffffffffffffffff16141561237d576040517f08c379a000000000000000000000000000000000000000000000000000000000815260040161237490613ba4565b60405180910390fd5b60015434146123c1576040517f08c379a00000000000000000000000000000000000000000000000000000000081526004016123b890613c64565b60405180910390fd5b60006040518060c0016040528084815260200160405180608001604052803373ffffffffffffffffffffffffffffffffffffffff16815260200160016002811115612435577f4e487b7100000000000000000000000000000000000000000000000000000000600052602160045260246000fd5b815260200160006001811115612474577f4e487b7100000000000000000000000000000000000000000000000000000000600052602160045260246000fd5b8152602001604051806060016040528060001515151581526020016000151515158152602001600015151515815250815250815260200160405180608001604052808573ffffffffffffffffffffffffffffffffffffffff1681526020016001600281111561250c577f4e487b7100000000000000000000000000000000000000000000000000000000600052602160045260246000fd5b81526020016000600181111561254b577f4e487b7100000000000000000000000000000000000000000000000000000000600052602160045260246000fd5b81526020016040518060600160405280600015151515815260200160001515151581526020016000151515158152508152508152602001348152602001600060038111156125c2577f4e487b7100000000000000000000000000000000000000000000000000000000600052602160045260246000fd5b81526020016000815250905060028190806001815401808255809150506001900390600052602060002090600802016000909190919091506000820151816000015560208201518160010160008201518160000160006101000a81548173ffffffffffffffffffffffffffffffffffffffff021916908373ffffffffffffffffffffffffffffffffffffffff16021790555060208201518160000160146101000a81548160ff021916908360028111156126a5577f4e487b7100000000000000000000000000000000000000000000000000000000600052602160045260246000fd5b021790555060408201518160000160156101000a81548160ff021916908360018111156126fb577f4e487b7100000000000000000000000000000000000000000000000000000000600052602160045260246000fd5b0217905550606082015181600101906003612717929190613630565b50505060408201518160030160008201518160000160006101000a81548173ffffffffffffffffffffffffffffffffffffffff021916908373ffffffffffffffffffffffffffffffffffffffff16021790555060208201518160000160146101000a81548160ff021916908360028111156127bb577f4e487b7100000000000000000000000000000000000000000000000000000000600052602160045260246000fd5b021790555060408201518160000160156101000a81548160ff02191690836001811115612811577f4e487b7100000000000000000000000000000000000000000000000000000000600052602160045260246000fd5b021790555060608201518160010190600361282d929190613630565b5050506060820151816005015560808201518160060160006101000a81548160ff0219169083600381111561288b577f4e487b7100000000000000000000000000000000000000000000000000000000600052602160045260246000fd5b021790555060a0820151816007015550507fd44ed8aabced1d1c7874d1a68373d2f842ed0c2599da80e29b9bf290e61c2e628333846040516128cf93929190613cc8565b60405180910390a1505050565b600281815481106128ec57600080fd5b9060005260206000209060080201600091509050806000015490806001016040518060800160405290816000820160009054906101000a900473ffffffffffffffffffffffffffffffffffffffff1673ffffffffffffffffffffffffffffffffffffffff1673ffffffffffffffffffffffffffffffffffffffff1681526020016000820160149054906101000a900460ff1660028111156129b6577f4e487b7100000000000000000000000000000000000000000000000000000000600052602160045260246000fd5b60028111156129ee577f4e487b7100000000000000000000000000000000000000000000000000000000600052602160045260246000fd5b81526020016000820160159054906101000a900460ff166001811115612a3d577f4e487b7100000000000000000000000000000000000000000000000000000000600052602160045260246000fd5b6001811115612a75577f4e487b7100000000000000000000000000000000000000000000000000000000600052602160045260246000fd5b815260200160018201600380602002604051908101604052809291908260038015612ada576020028201916000905b82829054906101000a900460ff16151581526020019060010190602082600001049283019260010382029150808411612aa45790505b50505050508152505090806003016040518060800160405290816000820160009054906101000a900473ffffffffffffffffffffffffffffffffffffffff1673ffffffffffffffffffffffffffffffffffffffff1673ffffffffffffffffffffffffffffffffffffffff1681526020016000820160149054906101000a900460ff166002811115612b94577f4e487b7100000000000000000000000000000000000000000000000000000000600052602160045260246000fd5b6002811115612bcc577f4e487b7100000000000000000000000000000000000000000000000000000000600052602160045260246000fd5b81526020016000820160159054906101000a900460ff166001811115612c1b577f4e487b7100000000000000000000000000000000000000000000000000000000600052602160045260246000fd5b6001811115612c53577f4e487b7100000000000000000000000000000000000000000000000000000000600052602160045260246000fd5b815260200160018201600380602002604051908101604052809291908260038015612cb8576020028201916000905b82829054906101000a900460ff16151581526020019060010190602082600001049283019260010382029150808411612c825790505b505050505081525050908060050154908060060160009054906101000a900460ff16908060070154905086565b60008160016003811115612d22577f4e487b7100000000000000000000000000000000000000000000000000000000600052602160045260246000fd5b60028281548110612d5c577f4e487b7100000000000000000000000000000000000000000000000000000000600052603260045260246000fd5b906000526020600020906008020160060160009054906101000a900460ff166003811115612db3577f4e487b7100000000000000000000000000000000000000000000000000000000600052602160045260246000fd5b14612df3576040517f08c379a0000000000000000000000000000000000000000000000000000000008152600401612dea90613ae4565b60405180910390fd5b6000603c60028581548110612e31577f4e487b7100000000000000000000000000000000000000000000000000000000600052603260045260246000fd5b90600052602060002090600802016007015442612e4e9190613e83565b612e589190613df8565b90508092505050919050565b600060028281548110612ea0577f4e487b7100000000000000000000000000000000000000000000000000000000600052603260045260246000fd5b906000526020600020906008020160010160000160146101000a81548160ff02191690836002811115612efc577f4e487b7100000000000000000000000000000000000000000000000000000000600052602160045260246000fd5b0217905550600060028281548110612f3d577f4e487b7100000000000000000000000000000000000000000000000000000000600052603260045260246000fd5b906000526020600020906008020160030160000160146101000a81548160ff02191690836002811115612f99577f4e487b7100000000000000000000000000000000000000000000000000000000600052602160045260246000fd5b021790555060005b60038110156130fb5760028281548110612fe4577f4e487b7100000000000000000000000000000000000000000000000000000000600052603260045260246000fd5b90600052602060002090600802016001016001018160038110613030577f4e487b7100000000000000000000000000000000000000000000000000000000600052603260045260246000fd5b602091828204019190069054906101000a900460ff166130e857600160028381548110613086577f4e487b7100000000000000000000000000000000000000000000000000000000600052603260045260246000fd5b906000526020600020906008020160010160000160146101000a81548160ff021916908360028111156130e2577f4e487b7100000000000000000000000000000000000000000000000000000000600052602160045260246000fd5b02179055505b80806130f390613f6e565b915050612fa1565b5060005b60038110156132595760028281548110613142577f4e487b7100000000000000000000000000000000000000000000000000000000600052603260045260246000fd5b9060005260206000209060080201600301600101816003811061318e577f4e487b7100000000000000000000000000000000000000000000000000000000600052603260045260246000fd5b602091828204019190069054906101000a900460ff16613246576001600283815481106131e4577f4e487b7100000000000000000000000000000000000000000000000000000000600052603260045260246000fd5b906000526020600020906008020160030160000160146101000a81548160ff02191690836002811115613240577f4e487b7100000000000000000000000000000000000000000000000000000000600052602160045260246000fd5b02179055505b808061325190613f6e565b9150506130ff565b5060006002811115613294577f4e487b7100000000000000000000000000000000000000000000000000000000600052602160045260246000fd5b600282815481106132ce577f4e487b7100000000000000000000000000000000000000000000000000000000600052603260045260246000fd5b906000526020600020906008020160010160000160149054906101000a900460ff166002811115613328577f4e487b7100000000000000000000000000000000000000000000000000000000600052602160045260246000fd5b14801561340057506000600281111561336a577f4e487b7100000000000000000000000000000000000000000000000000000000600052602160045260246000fd5b600282815481106133a4577f4e487b7100000000000000000000000000000000000000000000000000000000600052603260045260246000fd5b906000526020600020906008020160030160000160149054906101000a900460ff1660028111156133fe577f4e487b7100000000000000000000000000000000000000000000000000000000600052602160045260246000fd5b145b1561353e576002808281548110613440577f4e487b7100000000000000000000000000000000000000000000000000000000600052603260045260246000fd5b906000526020600020906008020160010160000160146101000a81548160ff0219169083600281111561349c577f4e487b7100000000000000000000000000000000000000000000000000000000600052602160045260246000fd5b021790555060028082815481106134dc577f4e487b7100000000000000000000000000000000000000000000000000000000600052603260045260246000fd5b906000526020600020906008020160030160000160146101000a81548160ff02191690836002811115613538577f4e487b7100000000000000000000000000000000000000000000000000000000600052602160045260246000fd5b02179055505b7f9c2054addee7fdf0e0890c4ddde0c7d49a9d1d86bb94d041590cbd12e9d7f59660028281548110613599577f4e487b7100000000000000000000000000000000000000000000000000000000600052603260045260246000fd5b906000526020600020906008020160010160000160149054906101000a900460ff16600283815481106135f5577f4e487b7100000000000000000000000000000000000000000000000000000000600052603260045260246000fd5b906000526020600020906008020160030160000160149054906101000a900460ff16604051613625929190613a9b565b60405180910390a150565b826003601f016020900481019282156136b85791602002820160005b8382111561368957835183826101000a81548160ff021916908315150217905550926020019260010160208160000104928301926001030261364c565b80156136b65782816101000a81549060ff0219169055600101602081600001049283019260010302613689565b505b5090506136c591906136c9565b5090565b5b808211156136e25760008160009055506001016136ca565b5090565b6000813590506136f5816143ee565b92915050565b60008135905061370a81614405565b92915050565b60006020828403121561372257600080fd5b6000613730848285016136fb565b91505092915050565b6000806040838503121561374c57600080fd5b600061375a858286016136fb565b925050602061376b858286016136e6565b9150509250929050565b60006137818383613802565b60208301905092915050565b61379681613eb7565b82525050565b6137a581613eb7565b82525050565b6137b481613d6e565b6137be8184613d86565b92506137c982613d64565b8060005b838110156137fa5781516137e18782613775565b96506137ec83613d79565b9250506001810190506137cd565b505050505050565b61380b81613ec9565b82525050565b61381a81613f38565b82525050565b61382981613f4a565b82525050565b61383881613f4a565b82525050565b61384781613f5c565b82525050565b600061385a602883613d91565b915061386582614044565b604082019050919050565b600061387d601283613d91565b915061388882614093565b602082019050919050565b60006138a0601683613d91565b91506138ab826140bc565b602082019050919050565b60006138c3602083613d91565b91506138ce826140e5565b602082019050919050565b60006138e6602a83613d91565b91506138f18261410e565b604082019050919050565b6000613909602483613d91565b91506139148261415d565b604082019050919050565b600061392c602b83613d91565b9150613937826141ac565b604082019050919050565b600061394f603083613d91565b915061395a826141fb565b604082019050919050565b6000613972601283613d91565b915061397d8261424a565b602082019050919050565b6000613995602683613d91565b91506139a082614273565b604082019050919050565b60006139b8601283613d91565b91506139c3826142c2565b602082019050919050565b60006139db602783613d91565b91506139e6826142eb565b604082019050919050565b60006139fe601283613d91565b9150613a098261433a565b602082019050919050565b6000613a21603983613d91565b9150613a2c82614363565b604082019050919050565b60c082016000820151613a4d600085018261378d565b506020820151613a606020850182613820565b506040820151613a736040850182613811565b506060820151613a8660608501826137ab565b50505050565b613a9581613f2e565b82525050565b6000604082019050613ab0600083018561382f565b613abd602083018461382f565b9392505050565b60006020820190508181036000830152613add8161384d565b9050919050565b60006020820190508181036000830152613afd81613870565b9050919050565b60006020820190508181036000830152613b1d81613893565b9050919050565b60006020820190508181036000830152613b3d816138b6565b9050919050565b60006020820190508181036000830152613b5d816138d9565b9050919050565b60006020820190508181036000830152613b7d816138fc565b9050919050565b60006020820190508181036000830152613b9d8161391f565b9050919050565b60006020820190508181036000830152613bbd81613942565b9050919050565b60006020820190508181036000830152613bdd81613965565b9050919050565b60006020820190508181036000830152613bfd81613988565b9050919050565b60006020820190508181036000830152613c1d816139ab565b9050919050565b60006020820190508181036000830152613c3d816139ce565b9050919050565b60006020820190508181036000830152613c5d816139f1565b9050919050565b60006020820190508181036000830152613c7d81613a14565b9050919050565b6000602082019050613c996000830184613a8c565b92915050565b6000604082019050613cb46000830185613a8c565b613cc1602083018461379c565b9392505050565b6000606082019050613cdd6000830186613a8c565b613cea602083018561379c565b613cf7604083018461379c565b949350505050565b600061020082019050613d156000830189613a8c565b613d226020830188613a37565b613d2f60e0830187613a37565b613d3d6101a0830186613a8c565b613d4b6101c083018561383e565b613d596101e0830184613a8c565b979650505050505050565b6000819050919050565b600060039050919050565b6000602082019050919050565b600081905092915050565b600082825260208201905092915050565b6000613dad82613f2e565b9150613db883613f2e565b9250827fffffffffffffffffffffffffffffffffffffffffffffffffffffffffffffffff03821115613ded57613dec613fb7565b5b828201905092915050565b6000613e0382613f2e565b9150613e0e83613f2e565b925082613e1e57613e1d613fe6565b5b828204905092915050565b6000613e3482613f2e565b9150613e3f83613f2e565b9250817fffffffffffffffffffffffffffffffffffffffffffffffffffffffffffffffff0483118215151615613e7857613e77613fb7565b5b828202905092915050565b6000613e8e82613f2e565b9150613e9983613f2e565b925082821015613eac57613eab613fb7565b5b828203905092915050565b6000613ec282613f0e565b9050919050565b60008115159050919050565b6000819050613ee3826143b2565b919050565b6000819050613ef6826143c6565b919050565b6000819050613f09826143da565b919050565b600073ffffffffffffffffffffffffffffffffffffffff82169050919050565b6000819050919050565b6000613f4382613ed5565b9050919050565b6000613f5582613ee8565b9050919050565b6000613f6782613efb565b9050919050565b6000613f7982613f2e565b91507fffffffffffffffffffffffffffffffffffffffffffffffffffffffffffffffff821415613fac57613fab613fb7565b5b600182019050919050565b7f4e487b7100000000000000000000000000000000000000000000000000000000600052601160045260246000fd5b7f4e487b7100000000000000000000000000000000000000000000000000000000600052601260045260246000fd5b7f4e487b7100000000000000000000000000000000000000000000000000000000600052602160045260246000fd5b7f456c207265746f206e6f2066756520737570657261646f20706f72206573746560008201527f207573756172696f000000000000000000000000000000000000000000000000602082015250565b7f456c207265746f206e6f20636f6d656e7a6f0000000000000000000000000000600082015250565b7f456c207265746f20657320696e6578697374656e746500000000000000000000600082015250565b7f456c207265746f20746f6461766961206e6f2068612066696e616c697a61646f600082015250565b7f4e6f20657320656c2076616c6f7220636f72726563746f2c207365207265717560008201527f6965726520312045544800000000000000000000000000000000000000000000602082015250565b7f59612073652063756d706c696f20656c207265746f2064656c2064696120646560008201527f20686f7900000000000000000000000000000000000000000000000000000000602082015250565b7f45737465207072656d696f2079612066756520636f627261646f20706f72206560008201527f737465207573756172696f000000000000000000000000000000000000000000602082015250565b7f456c20557375657220322064656265207365722064697374696e746f20616c2060008201527f63726561646f722064656c207265746f00000000000000000000000000000000602082015250565b7f446562652073657220756e20504c415945520000000000000000000000000000600082015250565b7f546f6461766961206e6f207472616e7363757272696f20656c207469656d706f60008201527f20746f74616c0000000000000000000000000000000000000000000000000000602082015250565b7f4e6f20657320656c205573756172696f20320000000000000000000000000000600082015250565b7f5961207465726d696e6f20656c207469656d706f2064656c207265746f20646560008201527f2033206469617300000000000000000000000000000000000000000000000000602082015250565b7f4e6f20657320656c205573756172696f20310000000000000000000000000000600082015250565b7f456c206d6f6e746f206465706f73697461646f206e6f20657320656c20636f7260008201527f726563746f2c20736520726571756965726520312043656c6f00000000000000602082015250565b600281106143c3576143c2614015565b5b50565b600381106143d7576143d6614015565b5b50565b600481106143eb576143ea614015565b5b50565b6143f781613eb7565b811461440257600080fd5b50565b61440e81613f2e565b811461441957600080fd5b5056fea2646970667358221220b1cc6806a7f26e83342039c756a1d09efec64d13266deda26718f4fca83bbdc364736f6c63430008040033",
  "devdoc": {
    "kind": "dev",
    "methods": {},
    "version": 1
  },
  "userdoc": {
    "kind": "user",
    "methods": {},
    "version": 1
  },
  "storageLayout": {
    "storage": [
      {
        "astId": 3,
        "contract": "contracts/Habitos.sol:Habitos",
        "label": "author",
        "offset": 0,
        "slot": "0",
        "type": "t_address"
      },
      {
        "astId": 18,
        "contract": "contracts/Habitos.sol:Habitos",
        "label": "montoRetoPorUser",
        "offset": 0,
        "slot": "1",
        "type": "t_uint256"
      },
      {
        "astId": 60,
        "contract": "contracts/Habitos.sol:Habitos",
        "label": "retos",
        "offset": 0,
        "slot": "2",
        "type": "t_array(t_struct(Reto)56_storage)dyn_storage"
      }
    ],
    "types": {
      "t_address": {
        "encoding": "inplace",
        "label": "address",
        "numberOfBytes": "20"
      },
      "t_array(t_bool)3_storage": {
        "base": "t_bool",
        "encoding": "inplace",
        "label": "bool[3]",
        "numberOfBytes": "32"
      },
      "t_array(t_struct(Reto)56_storage)dyn_storage": {
        "base": "t_struct(Reto)56_storage",
        "encoding": "dynamic_array",
        "label": "struct Habitos.Reto[]",
        "numberOfBytes": "32"
      },
      "t_bool": {
        "encoding": "inplace",
        "label": "bool",
        "numberOfBytes": "1"
      },
      "t_enum(CobroPremio)15": {
        "encoding": "inplace",
        "label": "enum Habitos.CobroPremio",
        "numberOfBytes": "1"
      },
      "t_enum(CumplioReto)12": {
        "encoding": "inplace",
        "label": "enum Habitos.CumplioReto",
        "numberOfBytes": "1"
      },
      "t_enum(State)8": {
        "encoding": "inplace",
        "label": "enum Habitos.State",
        "numberOfBytes": "1"
      },
      "t_struct(Reto)56_storage": {
        "encoding": "inplace",
        "label": "struct Habitos.Reto",
        "members": [
          {
            "astId": 42,
            "contract": "contracts/Habitos.sol:Habitos",
            "label": "id",
            "offset": 0,
            "slot": "0",
            "type": "t_uint256"
          },
          {
            "astId": 45,
            "contract": "contracts/Habitos.sol:Habitos",
            "label": "user1",
            "offset": 0,
            "slot": "1",
            "type": "t_struct(User)40_storage"
          },
          {
            "astId": 48,
            "contract": "contracts/Habitos.sol:Habitos",
            "label": "user2",
            "offset": 0,
            "slot": "3",
            "type": "t_struct(User)40_storage"
          },
          {
            "astId": 50,
            "contract": "contracts/Habitos.sol:Habitos",
            "label": "montoTotalDepositado",
            "offset": 0,
            "slot": "5",
            "type": "t_uint256"
          },
          {
            "astId": 53,
            "contract": "contracts/Habitos.sol:Habitos",
            "label": "estado",
            "offset": 0,
            "slot": "6",
            "type": "t_enum(State)8"
          },
          {
            "astId": 55,
            "contract": "contracts/Habitos.sol:Habitos",
            "label": "fechaComienzo",
            "offset": 0,
            "slot": "7",
            "type": "t_uint256"
          }
        ],
        "numberOfBytes": "256"
      },
      "t_struct(User)40_storage": {
        "encoding": "inplace",
        "label": "struct Habitos.User",
        "members": [
          {
            "astId": 29,
            "contract": "contracts/Habitos.sol:Habitos",
            "label": "wallet",
            "offset": 0,
            "slot": "0",
            "type": "t_address"
          },
          {
            "astId": 32,
            "contract": "contracts/Habitos.sol:Habitos",
            "label": "cumplioReto",
            "offset": 20,
            "slot": "0",
            "type": "t_enum(CumplioReto)12"
          },
          {
            "astId": 35,
            "contract": "contracts/Habitos.sol:Habitos",
            "label": "cobroPremio",
            "offset": 21,
            "slot": "0",
            "type": "t_enum(CobroPremio)15"
          },
          {
            "astId": 39,
            "contract": "contracts/Habitos.sol:Habitos",
            "label": "dias",
            "offset": 0,
            "slot": "1",
            "type": "t_array(t_bool)3_storage"
          }
        ],
        "numberOfBytes": "64"
      },
      "t_uint256": {
        "encoding": "inplace",
        "label": "uint256",
        "numberOfBytes": "32"
      }
    }
  }
}