{
  "address": "0x37B6E4BC27E63457e1E17a1Fc25af0866109705f",
  "abi": [
    {
      "inputs": [],
      "stateMutability": "nonpayable",
      "type": "constructor"
    },
    {
      "anonymous": false,
      "inputs": [
        {
          "indexed": false,
          "internalType": "uint256",
          "name": "indexReto",
          "type": "uint256"
        },
        {
          "indexed": false,
          "internalType": "address",
          "name": "wallet",
          "type": "address"
        }
      ],
      "name": "AnunciarPremioCobrado",
      "type": "event"
    },
    {
      "anonymous": false,
      "inputs": [
        {
          "indexed": false,
          "internalType": "uint256",
          "name": "indexReto",
          "type": "uint256"
        },
        {
          "indexed": false,
          "internalType": "enum Habitos.CumplioReto",
          "name": "resultado",
          "type": "uint8"
        }
      ],
      "name": "NotificacionDeGanador",
      "type": "event"
    },
    {
      "anonymous": false,
      "inputs": [
        {
          "indexed": false,
          "internalType": "uint256",
          "name": "id",
          "type": "uint256"
        },
        {
          "indexed": false,
          "internalType": "address",
          "name": "user1",
          "type": "address"
        }
      ],
      "name": "RetoCreado",
      "type": "event"
    },
    {
      "inputs": [
        {
          "internalType": "uint256",
          "name": "indexReto",
          "type": "uint256"
        }
      ],
      "name": "completarRetoDiario",
      "outputs": [],
      "stateMutability": "nonpayable",
      "type": "function"
    },
    {
      "inputs": [
        {
          "internalType": "string",
          "name": "_name",
          "type": "string"
        }
      ],
      "name": "crearReto",
      "outputs": [],
      "stateMutability": "payable",
      "type": "function"
    },
    {
      "inputs": [
        {
          "internalType": "uint256",
          "name": "indexReto",
          "type": "uint256"
        }
      ],
      "name": "finalizarReto",
      "outputs": [],
      "stateMutability": "nonpayable",
      "type": "function"
    },
    {
      "inputs": [],
      "name": "getRetosActivosPorUser",
      "outputs": [
        {
          "internalType": "uint256[]",
          "name": "",
          "type": "uint256[]"
        }
      ],
      "stateMutability": "view",
      "type": "function"
    },
    {
      "inputs": [
        {
          "internalType": "uint256",
          "name": "indexReto",
          "type": "uint256"
        }
      ],
      "name": "reclamarPremio2",
      "outputs": [],
      "stateMutability": "nonpayable",
      "type": "function"
    },
    {
      "inputs": [
        {
          "internalType": "uint256",
          "name": "",
          "type": "uint256"
        }
      ],
      "name": "retos",
      "outputs": [
        {
          "internalType": "uint256",
          "name": "id",
          "type": "uint256"
        },
        {
          "internalType": "string",
          "name": "name",
          "type": "string"
        },
        {
          "components": [
            {
              "internalType": "address",
              "name": "wallet",
              "type": "address"
            },
            {
              "internalType": "enum Habitos.CumplioReto",
              "name": "cumplioReto",
              "type": "uint8"
            },
            {
              "internalType": "enum Habitos.CobroPremio",
              "name": "cobroPremio",
              "type": "uint8"
            },
            {
              "internalType": "bool[3]",
              "name": "dias",
              "type": "bool[3]"
            }
          ],
          "internalType": "struct Habitos.User",
          "name": "user",
          "type": "tuple"
        },
        {
          "internalType": "uint256",
          "name": "deposito",
          "type": "uint256"
        },
        {
          "internalType": "enum Habitos.State",
          "name": "estado",
          "type": "uint8"
        },
        {
          "internalType": "uint256",
          "name": "fechaComienzo",
          "type": "uint256"
        }
      ],
      "stateMutability": "view",
      "type": "function"
    },
    {
      "inputs": [
        {
          "internalType": "uint256",
          "name": "indexReto",
          "type": "uint256"
        }
      ],
      "name": "retosActivoPorId",
      "outputs": [
        {
          "internalType": "bool",
          "name": "_status",
          "type": "bool"
        }
      ],
      "stateMutability": "view",
      "type": "function"
    },
    {
      "inputs": [],
      "name": "totalRetos",
      "outputs": [
        {
          "internalType": "uint256",
          "name": "",
          "type": "uint256"
        }
      ],
      "stateMutability": "view",
      "type": "function"
    }
  ],
  "transactionHash": "0xccb1c4df5cf2103a85c6527491bdd02af05d71bf2895d0b1a601553b17f9a47e",
  "args": [],
  "numDeployments": 3,
  "solcInputHash": "5034a645db977f70432f9eec7f670f38",
  "bytecode": "0x6080604052670de0b6b3a7640000600155600060025534801561002157600080fd5b50336000806101000a81548173ffffffffffffffffffffffffffffffffffffffff021916908373ffffffffffffffffffffffffffffffffffffffff160217905550612de1806100716000396000f3fe60806040526004361061007b5760003560e01c806351af4e9a1161004e57806351af4e9a14610119578063cff2120314610156578063dbaa992f1461017f578063df845dd9146101aa5761007b565b80630a5bad6c146100805780630ce0a07a146100a95780631354bdf8146100d457806339cb3c9a146100fd575b600080fd5b34801561008c57600080fd5b506100a760048036038101906100a2919061212c565b6101ec565b005b3480156100b557600080fd5b506100be6107ee565b6040516100cb9190612499565b60405180910390f35b3480156100e057600080fd5b506100fb60048036038101906100f6919061212c565b610883565b005b610117600480360381019061011291906120eb565b610c3d565b005b34801561012557600080fd5b50610140600480360381019061013b919061212c565b611054565b60405161014d91906124bb565b60405180910390f35b34801561016257600080fd5b5061017d6004803603810190610178919061212c565b61125b565b005b34801561018b57600080fd5b50610194611623565b6040516101a191906125f6565b60405180910390f35b3480156101b657600080fd5b506101d160048036038101906101cc919061212c565b611629565b6040516101e396959493929190612663565b60405180910390f35b8060048181548110610227577f4e487b7100000000000000000000000000000000000000000000000000000000600052603260045260246000fd5b906000526020600020906007020160020160000160009054906101000a900473ffffffffffffffffffffffffffffffffffffffff1673ffffffffffffffffffffffffffffffffffffffff163373ffffffffffffffffffffffffffffffffffffffff16146102c9576040517f08c379a00000000000000000000000000000000000000000000000000000000081526004016102c090612556565b60405180910390fd5b81600180811115610303577f4e487b7100000000000000000000000000000000000000000000000000000000600052602160045260246000fd5b6004828154811061033d577f4e487b7100000000000000000000000000000000000000000000000000000000600052603260045260246000fd5b906000526020600020906007020160050160009054906101000a900460ff166001811115610394577f4e487b7100000000000000000000000000000000000000000000000000000000600052602160045260246000fd5b146103d4576040517f08c379a00000000000000000000000000000000000000000000000000000000081526004016103cb90612516565b60405180910390fd5b60018081111561040d577f4e487b7100000000000000000000000000000000000000000000000000000000600052602160045260246000fd5b60048481548110610447577f4e487b7100000000000000000000000000000000000000000000000000000000600052603260045260246000fd5b906000526020600020906007020160020160000160149054906101000a900460ff1660018111156104a1577f4e487b7100000000000000000000000000000000000000000000000000000000600052602160045260246000fd5b146104e1576040517f08c379a00000000000000000000000000000000000000000000000000000000081526004016104d8906124f6565b60405180910390fd5b6000600181111561051b577f4e487b7100000000000000000000000000000000000000000000000000000000600052602160045260246000fd5b60048481548110610555577f4e487b7100000000000000000000000000000000000000000000000000000000600052603260045260246000fd5b906000526020600020906007020160020160000160159054906101000a900460ff1660018111156105af577f4e487b7100000000000000000000000000000000000000000000000000000000600052602160045260246000fd5b146105ef576040517f08c379a00000000000000000000000000000000000000000000000000000000081526004016105e690612576565b60405180910390fd5b60048381548110610629577f4e487b7100000000000000000000000000000000000000000000000000000000600052603260045260246000fd5b906000526020600020906007020160020160000160009054906101000a900473ffffffffffffffffffffffffffffffffffffffff1673ffffffffffffffffffffffffffffffffffffffff166108fc6001549081150290604051600060405180830381858888f193505050501580156106a5573d6000803e3d6000fd5b50600154600484815481106106e3577f4e487b7100000000000000000000000000000000000000000000000000000000600052603260045260246000fd5b90600052602060002090600702016004016000828254610703919061282e565b92505081905550600160048481548110610746577f4e487b7100000000000000000000000000000000000000000000000000000000600052603260045260246000fd5b906000526020600020906007020160020160000160156101000a81548160ff021916908360018111156107a2577f4e487b7100000000000000000000000000000000000000000000000000000000600052602160045260246000fd5b02179055506107b0836118e2565b7f168914fffbfad46639afcc9c0115ab22cab8a9074be0ad7e22fbfaca8b85d39383336040516107e1929190612611565b60405180910390a1505050565b6060600360003373ffffffffffffffffffffffffffffffffffffffff1673ffffffffffffffffffffffffffffffffffffffff16815260200190815260200160002080548060200260200160405190810160405280929190818152602001828054801561087957602002820191906000526020600020905b815481526020019060010190808311610865575b5050505050905090565b80600481815481106108be577f4e487b7100000000000000000000000000000000000000000000000000000000600052603260045260246000fd5b906000526020600020906007020160020160000160009054906101000a900473ffffffffffffffffffffffffffffffffffffffff1673ffffffffffffffffffffffffffffffffffffffff163373ffffffffffffffffffffffffffffffffffffffff1614610960576040517f08c379a000000000000000000000000000000000000000000000000000000000815260040161095790612556565b60405180910390fd5b816000600181111561099b577f4e487b7100000000000000000000000000000000000000000000000000000000600052602160045260246000fd5b600482815481106109d5577f4e487b7100000000000000000000000000000000000000000000000000000000600052603260045260246000fd5b906000526020600020906007020160050160009054906101000a900460ff166001811115610a2c577f4e487b7100000000000000000000000000000000000000000000000000000000600052602160045260246000fd5b14610a6c576040517f08c379a0000000000000000000000000000000000000000000000000000000008152600401610a63906124d6565b60405180910390fd5b6002610a7784611acf565b11610ab7576040517f08c379a0000000000000000000000000000000000000000000000000000000008152600401610aae90612596565b60405180910390fd5b600160048481548110610af3577f4e487b7100000000000000000000000000000000000000000000000000000000600052603260045260246000fd5b906000526020600020906007020160050160006101000a81548160ff02191690836001811115610b4c577f4e487b7100000000000000000000000000000000000000000000000000000000600052602160045260246000fd5b0217905550610b5a83611c4e565b60006001811115610b94577f4e487b7100000000000000000000000000000000000000000000000000000000600052602160045260246000fd5b60048481548110610bce577f4e487b7100000000000000000000000000000000000000000000000000000000600052603260045260246000fd5b906000526020600020906007020160020160000160149054906101000a900460ff166001811115610c28577f4e487b7100000000000000000000000000000000000000000000000000000000600052602160045260246000fd5b1415610c3857610c37836118e2565b5b505050565b6001543414610c81576040517f08c379a0000000000000000000000000000000000000000000000000000000008152600401610c78906125d6565b60405180910390fd5b60006040518060c00160405280600254815260200183815260200160405180608001604052803373ffffffffffffffffffffffffffffffffffffffff16815260200160006001811115610cfd577f4e487b7100000000000000000000000000000000000000000000000000000000600052602160045260246000fd5b815260200160006001811115610d3c577f4e487b7100000000000000000000000000000000000000000000000000000000600052602160045260246000fd5b8152602001604051806060016040528060001515151581526020016000151515158152602001600015151515815250815250815260200134815260200160006001811115610db3577f4e487b7100000000000000000000000000000000000000000000000000000000600052602160045260246000fd5b81526020014281525090506004819080600181540180825580915050600190039060005260206000209060070201600090919091909150600082015181600001556020820151816001019080519060200190610e10929190611ee0565b5060408201518160020160008201518160000160006101000a81548173ffffffffffffffffffffffffffffffffffffffff021916908373ffffffffffffffffffffffffffffffffffffffff16021790555060208201518160000160146101000a81548160ff02191690836001811115610eb2577f4e487b7100000000000000000000000000000000000000000000000000000000600052602160045260246000fd5b021790555060408201518160000160156101000a81548160ff02191690836001811115610f08577f4e487b7100000000000000000000000000000000000000000000000000000000600052602160045260246000fd5b0217905550606082015181600101906003610f24929190611f66565b5050506060820151816004015560808201518160050160006101000a81548160ff02191690836001811115610f82577f4e487b7100000000000000000000000000000000000000000000000000000000600052602160045260246000fd5b021790555060a0820151816006015550507f381a61e27db90363367908ad325aa61cbb84246330929930a82a9d592eb3af9860025433604051610fc6929190612611565b60405180910390a1600360003373ffffffffffffffffffffffffffffffffffffffff1673ffffffffffffffffffffffffffffffffffffffff168152602001908152602001600020600254908060018154018082558091505060019003906000526020600020016000909190919091505560016002600082825461104991906127a7565b925050819055505050565b60008160006001811115611091577f4e487b7100000000000000000000000000000000000000000000000000000000600052602160045260246000fd5b600482815481106110cb577f4e487b7100000000000000000000000000000000000000000000000000000000600052603260045260246000fd5b906000526020600020906007020160050160009054906101000a900460ff166001811115611122577f4e487b7100000000000000000000000000000000000000000000000000000000600052602160045260246000fd5b14611162576040517f08c379a0000000000000000000000000000000000000000000000000000000008152600401611159906124d6565b60405180910390fd5b826004818154811061119d577f4e487b7100000000000000000000000000000000000000000000000000000000600052603260045260246000fd5b906000526020600020906007020160020160000160009054906101000a900473ffffffffffffffffffffffffffffffffffffffff1673ffffffffffffffffffffffffffffffffffffffff163373ffffffffffffffffffffffffffffffffffffffff161461123f576040517f08c379a000000000000000000000000000000000000000000000000000000000815260040161123690612556565b60405180910390fd5b600061124a85611acf565b905060038110159350505050919050565b8060006001811115611296577f4e487b7100000000000000000000000000000000000000000000000000000000600052602160045260246000fd5b600482815481106112d0577f4e487b7100000000000000000000000000000000000000000000000000000000600052603260045260246000fd5b906000526020600020906007020160050160009054906101000a900460ff166001811115611327577f4e487b7100000000000000000000000000000000000000000000000000000000600052602160045260246000fd5b14611367576040517f08c379a000000000000000000000000000000000000000000000000000000000815260040161135e906124d6565b60405180910390fd5b81600481815481106113a2577f4e487b7100000000000000000000000000000000000000000000000000000000600052603260045260246000fd5b906000526020600020906007020160020160000160009054906101000a900473ffffffffffffffffffffffffffffffffffffffff1673ffffffffffffffffffffffffffffffffffffffff163373ffffffffffffffffffffffffffffffffffffffff1614611444576040517f08c379a000000000000000000000000000000000000000000000000000000000815260040161143b90612556565b60405180910390fd5b600061144f84611acf565b905060038110611494576040517f08c379a000000000000000000000000000000000000000000000000000000000815260040161148b906125b6565b60405180910390fd5b60001515600485815481106114d2577f4e487b7100000000000000000000000000000000000000000000000000000000600052603260045260246000fd5b9060005260206000209060070201600201600101826003811061151e577f4e487b7100000000000000000000000000000000000000000000000000000000600052603260045260246000fd5b602091828204019190069054906101000a900460ff16151514611576576040517f08c379a000000000000000000000000000000000000000000000000000000000815260040161156d90612536565b60405180910390fd5b6001600485815481106115b2577f4e487b7100000000000000000000000000000000000000000000000000000000600052603260045260246000fd5b906000526020600020906007020160020160010182600381106115fe577f4e487b7100000000000000000000000000000000000000000000000000000000600052603260045260246000fd5b602091828204019190066101000a81548160ff02191690831515021790555050505050565b60025481565b6004818154811061163957600080fd5b90600052602060002090600702016000915090508060000154908060010180546116629061295b565b80601f016020809104026020016040519081016040528092919081815260200182805461168e9061295b565b80156116db5780601f106116b0576101008083540402835291602001916116db565b820191906000526020600020905b8154815290600101906020018083116116be57829003601f168201915b505050505090806002016040518060800160405290816000820160009054906101000a900473ffffffffffffffffffffffffffffffffffffffff1673ffffffffffffffffffffffffffffffffffffffff1673ffffffffffffffffffffffffffffffffffffffff1681526020016000820160149054906101000a900460ff166001811115611791577f4e487b7100000000000000000000000000000000000000000000000000000000600052602160045260246000fd5b60018111156117c9577f4e487b7100000000000000000000000000000000000000000000000000000000600052602160045260246000fd5b81526020016000820160159054906101000a900460ff166001811115611818577f4e487b7100000000000000000000000000000000000000000000000000000000600052602160045260246000fd5b6001811115611850577f4e487b7100000000000000000000000000000000000000000000000000000000600052602160045260246000fd5b8152602001600182016003806020026040519081016040528092919082600380156118b5576020028201916000905b82829054906101000a900460ff1615158152602001906001019060208260000104928301926001038202915080841161187f5790505b505050505081525050908060040154908060050160009054906101000a900460ff16908060060154905086565b6000600360003373ffffffffffffffffffffffffffffffffffffffff1673ffffffffffffffffffffffffffffffffffffffff168152602001908152602001600020905060005b8180549050811015611a7b578282828154811061196e577f4e487b7100000000000000000000000000000000000000000000000000000000600052603260045260246000fd5b90600052602060002001541415611a68578160018380549050611991919061282e565b815481106119c8577f4e487b7100000000000000000000000000000000000000000000000000000000600052603260045260246000fd5b9060005260206000200154828281548110611a0c577f4e487b7100000000000000000000000000000000000000000000000000000000600052603260045260246000fd5b906000526020600020018190555081805480611a51577f4e487b7100000000000000000000000000000000000000000000000000000000600052603160045260246000fd5b600190038181906000526020600020016000905590555b8080611a73906129be565b915050611928565b5080600360003373ffffffffffffffffffffffffffffffffffffffff1673ffffffffffffffffffffffffffffffffffffffff168152602001908152602001600020908054611aca929190611fff565b505050565b60008160006001811115611b0c577f4e487b7100000000000000000000000000000000000000000000000000000000600052602160045260246000fd5b60048281548110611b46577f4e487b7100000000000000000000000000000000000000000000000000000000600052603260045260246000fd5b906000526020600020906007020160050160009054906101000a900460ff166001811115611b9d577f4e487b7100000000000000000000000000000000000000000000000000000000600052602160045260246000fd5b14611bdd576040517f08c379a0000000000000000000000000000000000000000000000000000000008152600401611bd4906124d6565b60405180910390fd5b6000603c60048581548110611c1b577f4e487b7100000000000000000000000000000000000000000000000000000000600052603260045260246000fd5b90600052602060002090600702016006015442611c38919061282e565b611c4291906127fd565b90508092505050919050565b600160048281548110611c8a577f4e487b7100000000000000000000000000000000000000000000000000000000600052603260045260246000fd5b906000526020600020906007020160020160000160146101000a81548160ff02191690836001811115611ce6577f4e487b7100000000000000000000000000000000000000000000000000000000600052602160045260246000fd5b021790555060005b6003811015611e485760048281548110611d31577f4e487b7100000000000000000000000000000000000000000000000000000000600052603260045260246000fd5b90600052602060002090600702016002016001018160038110611d7d577f4e487b7100000000000000000000000000000000000000000000000000000000600052603260045260246000fd5b602091828204019190069054906101000a900460ff16611e3557600060048381548110611dd3577f4e487b7100000000000000000000000000000000000000000000000000000000600052603260045260246000fd5b906000526020600020906007020160020160000160146101000a81548160ff02191690836001811115611e2f577f4e487b7100000000000000000000000000000000000000000000000000000000600052602160045260246000fd5b02179055505b8080611e40906129be565b915050611cee565b507fc8b5313552b8be7e6e143e65bc134fdc90527c98af49273034db575290206afe8160048381548110611ea5577f4e487b7100000000000000000000000000000000000000000000000000000000600052603260045260246000fd5b906000526020600020906007020160020160000160149054906101000a900460ff16604051611ed592919061263a565b60405180910390a150565b828054611eec9061295b565b90600052602060002090601f016020900481019282611f0e5760008555611f55565b82601f10611f2757805160ff1916838001178555611f55565b82800160010185558215611f55579182015b82811115611f54578251825591602001919060010190611f39565b5b509050611f629190612051565b5090565b826003601f01602090048101928215611fee5791602002820160005b83821115611fbf57835183826101000a81548160ff0219169083151502179055509260200192600101602081600001049283019260010302611f82565b8015611fec5782816101000a81549060ff0219169055600101602081600001049283019260010302611fbf565b505b509050611ffb9190612051565b5090565b8280548282559060005260206000209081019282156120405760005260206000209182015b8281111561203f578254825591600101919060010190612024565b5b50905061204d9190612051565b5090565b5b8082111561206a576000816000905550600101612052565b5090565b600061208161207c846126f4565b6126cf565b90508281526020810184848401111561209957600080fd5b6120a4848285612919565b509392505050565b600082601f8301126120bd57600080fd5b81356120cd84826020860161206e565b91505092915050565b6000813590506120e581612d94565b92915050565b6000602082840312156120fd57600080fd5b600082013567ffffffffffffffff81111561211757600080fd5b612123848285016120ac565b91505092915050565b60006020828403121561213e57600080fd5b600061214c848285016120d6565b91505092915050565b60006121618383612258565b60208301905092915050565b6000612179838361247b565b60208301905092915050565b61218e81612862565b82525050565b61219d81612862565b82525050565b6121ac8161273f565b6121b6818461277a565b92506121c182612725565b8060005b838110156121f25781516121d98782612155565b96506121e483612760565b9250506001810190506121c5565b505050505050565b60006122058261274a565b61220f8185612785565b935061221a8361272f565b8060005b8381101561224b578151612232888261216d565b975061223d8361276d565b92505060018101905061221e565b5085935050505092915050565b61226181612874565b82525050565b61227081612874565b82525050565b61227f816128e3565b82525050565b61228e816128f5565b82525050565b61229d816128f5565b82525050565b6122ac81612907565b82525050565b60006122bd82612755565b6122c78185612796565b93506122d7818560208601612928565b6122e081612af2565b840191505092915050565b60006122f8601d83612796565b915061230382612b03565b602082019050919050565b600061231b602883612796565b915061232682612b2c565b604082019050919050565b600061233e602083612796565b915061234982612b7b565b602082019050919050565b6000612361602483612796565b915061236c82612ba4565b604082019050919050565b6000612384601983612796565b915061238f82612bf3565b602082019050919050565b60006123a7602b83612796565b91506123b282612c1c565b604082019050919050565b60006123ca602683612796565b91506123d582612c6b565b604082019050919050565b60006123ed602783612796565b91506123f882612cba565b604082019050919050565b6000612410603983612796565b915061241b82612d09565b604082019050919050565b60c08201600082015161243c6000850182612185565b50602082015161244f6020850182612285565b5060408201516124626040850182612276565b50606082015161247560608501826121a3565b50505050565b612484816128d9565b82525050565b612493816128d9565b82525050565b600060208201905081810360008301526124b381846121fa565b905092915050565b60006020820190506124d06000830184612267565b92915050565b600060208201905081810360008301526124ef816122eb565b9050919050565b6000602082019050818103600083015261250f8161230e565b9050919050565b6000602082019050818103600083015261252f81612331565b9050919050565b6000602082019050818103600083015261254f81612354565b9050919050565b6000602082019050818103600083015261256f81612377565b9050919050565b6000602082019050818103600083015261258f8161239a565b9050919050565b600060208201905081810360008301526125af816123bd565b9050919050565b600060208201905081810360008301526125cf816123e0565b9050919050565b600060208201905081810360008301526125ef81612403565b9050919050565b600060208201905061260b600083018461248a565b92915050565b6000604082019050612626600083018561248a565b6126336020830184612194565b9392505050565b600060408201905061264f600083018561248a565b61265c6020830184612294565b9392505050565b600061016082019050612679600083018961248a565b818103602083015261268b81886122b2565b905061269a6040830187612426565b6126a861010083018661248a565b6126b66101208301856122a3565b6126c461014083018461248a565b979650505050505050565b60006126d96126ea565b90506126e5828261298d565b919050565b6000604051905090565b600067ffffffffffffffff82111561270f5761270e612ac3565b5b61271882612af2565b9050602081019050919050565b6000819050919050565b6000819050602082019050919050565b600060039050919050565b600081519050919050565b600081519050919050565b6000602082019050919050565b6000602082019050919050565b600081905092915050565b600082825260208201905092915050565b600082825260208201905092915050565b60006127b2826128d9565b91506127bd836128d9565b9250827fffffffffffffffffffffffffffffffffffffffffffffffffffffffffffffffff038211156127f2576127f1612a07565b5b828201905092915050565b6000612808826128d9565b9150612813836128d9565b92508261282357612822612a36565b5b828204905092915050565b6000612839826128d9565b9150612844836128d9565b92508282101561285757612856612a07565b5b828203905092915050565b600061286d826128b9565b9050919050565b60008115159050919050565b600081905061288e82612d58565b919050565b60008190506128a182612d6c565b919050565b60008190506128b482612d80565b919050565b600073ffffffffffffffffffffffffffffffffffffffff82169050919050565b6000819050919050565b60006128ee82612880565b9050919050565b600061290082612893565b9050919050565b6000612912826128a6565b9050919050565b82818337600083830152505050565b60005b8381101561294657808201518184015260208101905061292b565b83811115612955576000848401525b50505050565b6000600282049050600182168061297357607f821691505b6020821081141561298757612986612a94565b5b50919050565b61299682612af2565b810181811067ffffffffffffffff821117156129b5576129b4612ac3565b5b80604052505050565b60006129c9826128d9565b91507fffffffffffffffffffffffffffffffffffffffffffffffffffffffffffffffff8214156129fc576129fb612a07565b5b600182019050919050565b7f4e487b7100000000000000000000000000000000000000000000000000000000600052601160045260246000fd5b7f4e487b7100000000000000000000000000000000000000000000000000000000600052601260045260246000fd5b7f4e487b7100000000000000000000000000000000000000000000000000000000600052602160045260246000fd5b7f4e487b7100000000000000000000000000000000000000000000000000000000600052602260045260246000fd5b7f4e487b7100000000000000000000000000000000000000000000000000000000600052604160045260246000fd5b6000601f19601f8301169050919050565b7f45737465207265746f206e6f206573746120656e20766967656e636961000000600082015250565b7f456c207265746f206e6f2066756520737570657261646f20706f72206573746560008201527f207573756172696f000000000000000000000000000000000000000000000000602082015250565b7f456c207265746f20746f6461766961206e6f2068612066696e616c697a61646f600082015250565b7f59612073652063756d706c696f20656c207265746f2064656c2064696120646560008201527f20686f7900000000000000000000000000000000000000000000000000000000602082015250565b7f4e6f20657320656c205573756172696f2064656c207265746f00000000000000600082015250565b7f45737465207072656d696f2079612066756520636f627261646f20706f72206560008201527f737465207573756172696f000000000000000000000000000000000000000000602082015250565b7f546f6461766961206e6f207472616e7363757272696f20656c207469656d706f60008201527f20746f74616c0000000000000000000000000000000000000000000000000000602082015250565b7f5961207465726d696e6f20656c207469656d706f2064656c207265746f20646560008201527f2033206469617300000000000000000000000000000000000000000000000000602082015250565b7f456c206d6f6e746f206465706f73697461646f206e6f20657320656c20636f7260008201527f726563746f2c20736520726571756965726520312043656c6f00000000000000602082015250565b60028110612d6957612d68612a65565b5b50565b60028110612d7d57612d7c612a65565b5b50565b60028110612d9157612d90612a65565b5b50565b612d9d816128d9565b8114612da857600080fd5b5056fea264697066735822122061308408f163a806953472f36f530b4f76d9d011ec6070d174971ab44fc76d3764736f6c63430008040033",
  "devdoc": {
    "kind": "dev",
    "methods": {},
    "version": 1
  },
  "userdoc": {
    "kind": "user",
    "methods": {},
    "version": 1
  },
  "storageLayout": {
    "storage": [
      {
        "astId": 3,
        "contract": "contracts/Habitos.sol:Habitos",
        "label": "author",
        "offset": 0,
        "slot": "0",
        "type": "t_address"
      },
      {
        "astId": 15,
        "contract": "contracts/Habitos.sol:Habitos",
        "label": "montoReto",
        "offset": 0,
        "slot": "1",
        "type": "t_uint256"
      },
      {
        "astId": 18,
        "contract": "contracts/Habitos.sol:Habitos",
        "label": "totalRetos",
        "offset": 0,
        "slot": "2",
        "type": "t_uint256"
      },
      {
        "astId": 23,
        "contract": "contracts/Habitos.sol:Habitos",
        "label": "retosPorUser",
        "offset": 0,
        "slot": "3",
        "type": "t_mapping(t_address,t_array(t_uint256)dyn_storage)"
      },
      {
        "astId": 64,
        "contract": "contracts/Habitos.sol:Habitos",
        "label": "retos",
        "offset": 0,
        "slot": "4",
        "type": "t_array(t_struct(Reto)60_storage)dyn_storage"
      }
    ],
    "types": {
      "t_address": {
        "encoding": "inplace",
        "label": "address",
        "numberOfBytes": "20"
      },
      "t_array(t_bool)3_storage": {
        "base": "t_bool",
        "encoding": "inplace",
        "label": "bool[3]",
        "numberOfBytes": "32"
      },
      "t_array(t_struct(Reto)60_storage)dyn_storage": {
        "base": "t_struct(Reto)60_storage",
        "encoding": "dynamic_array",
        "label": "struct Habitos.Reto[]",
        "numberOfBytes": "32"
      },
      "t_array(t_uint256)dyn_storage": {
        "base": "t_uint256",
        "encoding": "dynamic_array",
        "label": "uint256[]",
        "numberOfBytes": "32"
      },
      "t_bool": {
        "encoding": "inplace",
        "label": "bool",
        "numberOfBytes": "1"
      },
      "t_enum(CobroPremio)12": {
        "encoding": "inplace",
        "label": "enum Habitos.CobroPremio",
        "numberOfBytes": "1"
      },
      "t_enum(CumplioReto)9": {
        "encoding": "inplace",
        "label": "enum Habitos.CumplioReto",
        "numberOfBytes": "1"
      },
      "t_enum(State)6": {
        "encoding": "inplace",
        "label": "enum Habitos.State",
        "numberOfBytes": "1"
      },
      "t_mapping(t_address,t_array(t_uint256)dyn_storage)": {
        "encoding": "mapping",
        "key": "t_address",
        "label": "mapping(address => uint256[])",
        "numberOfBytes": "32",
        "value": "t_array(t_uint256)dyn_storage"
      },
      "t_string_storage": {
        "encoding": "bytes",
        "label": "string",
        "numberOfBytes": "32"
      },
      "t_struct(Reto)60_storage": {
        "encoding": "inplace",
        "label": "struct Habitos.Reto",
        "members": [
          {
            "astId": 47,
            "contract": "contracts/Habitos.sol:Habitos",
            "label": "id",
            "offset": 0,
            "slot": "0",
            "type": "t_uint256"
          },
          {
            "astId": 49,
            "contract": "contracts/Habitos.sol:Habitos",
            "label": "name",
            "offset": 0,
            "slot": "1",
            "type": "t_string_storage"
          },
          {
            "astId": 52,
            "contract": "contracts/Habitos.sol:Habitos",
            "label": "user",
            "offset": 0,
            "slot": "2",
            "type": "t_struct(User)45_storage"
          },
          {
            "astId": 54,
            "contract": "contracts/Habitos.sol:Habitos",
            "label": "deposito",
            "offset": 0,
            "slot": "4",
            "type": "t_uint256"
          },
          {
            "astId": 57,
            "contract": "contracts/Habitos.sol:Habitos",
            "label": "estado",
            "offset": 0,
            "slot": "5",
            "type": "t_enum(State)6"
          },
          {
            "astId": 59,
            "contract": "contracts/Habitos.sol:Habitos",
            "label": "fechaComienzo",
            "offset": 0,
            "slot": "6",
            "type": "t_uint256"
          }
        ],
        "numberOfBytes": "224"
      },
      "t_struct(User)45_storage": {
        "encoding": "inplace",
        "label": "struct Habitos.User",
        "members": [
          {
            "astId": 34,
            "contract": "contracts/Habitos.sol:Habitos",
            "label": "wallet",
            "offset": 0,
            "slot": "0",
            "type": "t_address"
          },
          {
            "astId": 37,
            "contract": "contracts/Habitos.sol:Habitos",
            "label": "cumplioReto",
            "offset": 20,
            "slot": "0",
            "type": "t_enum(CumplioReto)9"
          },
          {
            "astId": 40,
            "contract": "contracts/Habitos.sol:Habitos",
            "label": "cobroPremio",
            "offset": 21,
            "slot": "0",
            "type": "t_enum(CobroPremio)12"
          },
          {
            "astId": 44,
            "contract": "contracts/Habitos.sol:Habitos",
            "label": "dias",
            "offset": 0,
            "slot": "1",
            "type": "t_array(t_bool)3_storage"
          }
        ],
        "numberOfBytes": "64"
      },
      "t_uint256": {
        "encoding": "inplace",
        "label": "uint256",
        "numberOfBytes": "32"
      }
    }
  }
}