{
  "address": "0xaBaCaB92277D8A2B417ef8B0A5DD9cB758BE9B59",
  "abi": [
    {
      "inputs": [],
      "stateMutability": "nonpayable",
      "type": "constructor"
    },
    {
      "anonymous": false,
      "inputs": [
        {
          "indexed": false,
          "internalType": "uint256",
          "name": "indexReto",
          "type": "uint256"
        },
        {
          "indexed": false,
          "internalType": "address",
          "name": "wallet",
          "type": "address"
        }
      ],
      "name": "AnunciarPremioCobrado",
      "type": "event"
    },
    {
      "anonymous": false,
      "inputs": [
        {
          "indexed": true,
          "internalType": "address",
          "name": "owner",
          "type": "address"
        },
        {
          "indexed": true,
          "internalType": "address",
          "name": "approved",
          "type": "address"
        },
        {
          "indexed": true,
          "internalType": "uint256",
          "name": "tokenId",
          "type": "uint256"
        }
      ],
      "name": "Approval",
      "type": "event"
    },
    {
      "anonymous": false,
      "inputs": [
        {
          "indexed": true,
          "internalType": "address",
          "name": "owner",
          "type": "address"
        },
        {
          "indexed": true,
          "internalType": "address",
          "name": "operator",
          "type": "address"
        },
        {
          "indexed": false,
          "internalType": "bool",
          "name": "approved",
          "type": "bool"
        }
      ],
      "name": "ApprovalForAll",
      "type": "event"
    },
    {
      "anonymous": false,
      "inputs": [
        {
          "indexed": false,
          "internalType": "uint256",
          "name": "idReto",
          "type": "uint256"
        },
        {
          "indexed": false,
          "internalType": "uint256",
          "name": "idNFT",
          "type": "uint256"
        }
      ],
      "name": "NFTMinteado",
      "type": "event"
    },
    {
      "anonymous": false,
      "inputs": [
        {
          "indexed": false,
          "internalType": "uint256",
          "name": "indexReto",
          "type": "uint256"
        },
        {
          "indexed": false,
          "internalType": "enum Habitos.CumplioReto",
          "name": "resultado",
          "type": "uint8"
        }
      ],
      "name": "NotificacionDeGanador",
      "type": "event"
    },
    {
      "anonymous": false,
      "inputs": [
        {
          "indexed": false,
          "internalType": "uint256",
          "name": "id",
          "type": "uint256"
        },
        {
          "indexed": false,
          "internalType": "address",
          "name": "user1",
          "type": "address"
        }
      ],
      "name": "RetoCreado",
      "type": "event"
    },
    {
      "anonymous": false,
      "inputs": [
        {
          "indexed": true,
          "internalType": "address",
          "name": "from",
          "type": "address"
        },
        {
          "indexed": true,
          "internalType": "address",
          "name": "to",
          "type": "address"
        },
        {
          "indexed": true,
          "internalType": "uint256",
          "name": "tokenId",
          "type": "uint256"
        }
      ],
      "name": "Transfer",
      "type": "event"
    },
    {
      "inputs": [
        {
          "internalType": "address",
          "name": "to",
          "type": "address"
        },
        {
          "internalType": "uint256",
          "name": "tokenId",
          "type": "uint256"
        }
      ],
      "name": "approve",
      "outputs": [],
      "stateMutability": "nonpayable",
      "type": "function"
    },
    {
      "inputs": [
        {
          "internalType": "address",
          "name": "owner",
          "type": "address"
        }
      ],
      "name": "balanceOf",
      "outputs": [
        {
          "internalType": "uint256",
          "name": "",
          "type": "uint256"
        }
      ],
      "stateMutability": "view",
      "type": "function"
    },
    {
      "inputs": [
        {
          "internalType": "uint256",
          "name": "indexReto",
          "type": "uint256"
        }
      ],
      "name": "completarRetoDiario",
      "outputs": [],
      "stateMutability": "nonpayable",
      "type": "function"
    },
    {
      "inputs": [
        {
          "internalType": "string",
          "name": "_name",
          "type": "string"
        }
      ],
      "name": "crearReto",
      "outputs": [
        {
          "internalType": "uint256",
          "name": "",
          "type": "uint256"
        }
      ],
      "stateMutability": "payable",
      "type": "function"
    },
    {
      "inputs": [
        {
          "internalType": "uint256",
          "name": "indexReto",
          "type": "uint256"
        }
      ],
      "name": "finalizarReto",
      "outputs": [],
      "stateMutability": "nonpayable",
      "type": "function"
    },
    {
      "inputs": [
        {
          "internalType": "uint256",
          "name": "tokenId",
          "type": "uint256"
        }
      ],
      "name": "getApproved",
      "outputs": [
        {
          "internalType": "address",
          "name": "",
          "type": "address"
        }
      ],
      "stateMutability": "view",
      "type": "function"
    },
    {
      "inputs": [],
      "name": "getRetosActivosPorUser",
      "outputs": [
        {
          "internalType": "uint256[]",
          "name": "",
          "type": "uint256[]"
        }
      ],
      "stateMutability": "view",
      "type": "function"
    },
    {
      "inputs": [
        {
          "internalType": "address",
          "name": "owner",
          "type": "address"
        },
        {
          "internalType": "address",
          "name": "operator",
          "type": "address"
        }
      ],
      "name": "isApprovedForAll",
      "outputs": [
        {
          "internalType": "bool",
          "name": "",
          "type": "bool"
        }
      ],
      "stateMutability": "view",
      "type": "function"
    },
    {
      "inputs": [
        {
          "internalType": "uint256",
          "name": "indexReto",
          "type": "uint256"
        }
      ],
      "name": "mint",
      "outputs": [],
      "stateMutability": "nonpayable",
      "type": "function"
    },
    {
      "inputs": [],
      "name": "name",
      "outputs": [
        {
          "internalType": "string",
          "name": "",
          "type": "string"
        }
      ],
      "stateMutability": "view",
      "type": "function"
    },
    {
      "inputs": [
        {
          "internalType": "uint256",
          "name": "tokenId",
          "type": "uint256"
        }
      ],
      "name": "ownerOf",
      "outputs": [
        {
          "internalType": "address",
          "name": "",
          "type": "address"
        }
      ],
      "stateMutability": "view",
      "type": "function"
    },
    {
      "inputs": [
        {
          "internalType": "uint256",
          "name": "indexReto",
          "type": "uint256"
        }
      ],
      "name": "reclamarPremio2",
      "outputs": [],
      "stateMutability": "nonpayable",
      "type": "function"
    },
    {
      "inputs": [
        {
          "internalType": "uint256",
          "name": "",
          "type": "uint256"
        }
      ],
      "name": "retos",
      "outputs": [
        {
          "internalType": "uint256",
          "name": "id",
          "type": "uint256"
        },
        {
          "internalType": "string",
          "name": "name",
          "type": "string"
        },
        {
          "components": [
            {
              "internalType": "address",
              "name": "wallet",
              "type": "address"
            },
            {
              "internalType": "enum Habitos.CumplioReto",
              "name": "cumplioReto",
              "type": "uint8"
            },
            {
              "internalType": "enum Habitos.CobroPremio",
              "name": "cobroPremio",
              "type": "uint8"
            },
            {
              "internalType": "bool",
              "name": "cobroNFT",
              "type": "bool"
            },
            {
              "internalType": "bool[3]",
              "name": "dias",
              "type": "bool[3]"
            }
          ],
          "internalType": "struct Habitos.User",
          "name": "user",
          "type": "tuple"
        },
        {
          "internalType": "uint256",
          "name": "deposito",
          "type": "uint256"
        },
        {
          "internalType": "enum Habitos.State",
          "name": "estado",
          "type": "uint8"
        },
        {
          "internalType": "uint256",
          "name": "fechaComienzo",
          "type": "uint256"
        }
      ],
      "stateMutability": "view",
      "type": "function"
    },
    {
      "inputs": [
        {
          "internalType": "uint256",
          "name": "indexReto",
          "type": "uint256"
        }
      ],
      "name": "retosActivoPorId",
      "outputs": [
        {
          "internalType": "bool",
          "name": "_status",
          "type": "bool"
        }
      ],
      "stateMutability": "view",
      "type": "function"
    },
    {
      "inputs": [
        {
          "internalType": "address",
          "name": "from",
          "type": "address"
        },
        {
          "internalType": "address",
          "name": "to",
          "type": "address"
        },
        {
          "internalType": "uint256",
          "name": "tokenId",
          "type": "uint256"
        }
      ],
      "name": "safeTransferFrom",
      "outputs": [],
      "stateMutability": "nonpayable",
      "type": "function"
    },
    {
      "inputs": [
        {
          "internalType": "address",
          "name": "from",
          "type": "address"
        },
        {
          "internalType": "address",
          "name": "to",
          "type": "address"
        },
        {
          "internalType": "uint256",
          "name": "tokenId",
          "type": "uint256"
        },
        {
          "internalType": "bytes",
          "name": "_data",
          "type": "bytes"
        }
      ],
      "name": "safeTransferFrom",
      "outputs": [],
      "stateMutability": "nonpayable",
      "type": "function"
    },
    {
      "inputs": [
        {
          "internalType": "address",
          "name": "operator",
          "type": "address"
        },
        {
          "internalType": "bool",
          "name": "approved",
          "type": "bool"
        }
      ],
      "name": "setApprovalForAll",
      "outputs": [],
      "stateMutability": "nonpayable",
      "type": "function"
    },
    {
      "inputs": [
        {
          "internalType": "bytes4",
          "name": "interfaceId",
          "type": "bytes4"
        }
      ],
      "name": "supportsInterface",
      "outputs": [
        {
          "internalType": "bool",
          "name": "",
          "type": "bool"
        }
      ],
      "stateMutability": "view",
      "type": "function"
    },
    {
      "inputs": [],
      "name": "symbol",
      "outputs": [
        {
          "internalType": "string",
          "name": "",
          "type": "string"
        }
      ],
      "stateMutability": "view",
      "type": "function"
    },
    {
      "inputs": [
        {
          "internalType": "uint256",
          "name": "tokenId",
          "type": "uint256"
        }
      ],
      "name": "tokenURI",
      "outputs": [
        {
          "internalType": "string",
          "name": "",
          "type": "string"
        }
      ],
      "stateMutability": "view",
      "type": "function"
    },
    {
      "inputs": [],
      "name": "totalRetos",
      "outputs": [
        {
          "internalType": "uint256",
          "name": "",
          "type": "uint256"
        }
      ],
      "stateMutability": "view",
      "type": "function"
    },
    {
      "inputs": [
        {
          "internalType": "address",
          "name": "from",
          "type": "address"
        },
        {
          "internalType": "address",
          "name": "to",
          "type": "address"
        },
        {
          "internalType": "uint256",
          "name": "tokenId",
          "type": "uint256"
        }
      ],
      "name": "transferFrom",
      "outputs": [],
      "stateMutability": "nonpayable",
      "type": "function"
    }
  ],
  "transactionHash": "0xcb592c36f5665f594856d7a5958188f09b7612be66890988b9508800c3de8843",
  "args": [],
  "numDeployments": 4,
  "solcInputHash": "8abb7166d489f2e4b00abfc6c9b35943",
  "bytecode": "0x60806040526103e8600755670de0b6b3a76400006009556000600a553480156200002857600080fd5b506040518060400160405280600a81526020017f48616269746f734e4654000000000000000000000000000000000000000000008152506040518060400160405280600381526020017f48414200000000000000000000000000000000000000000000000000000000008152508160009080519060200190620000ad92919062000110565b508060019080519060200190620000c692919062000110565b50505033600860006101000a81548173ffffffffffffffffffffffffffffffffffffffff021916908373ffffffffffffffffffffffffffffffffffffffff16021790555062000225565b8280546200011e90620001c0565b90600052602060002090601f0160209004810192826200014257600085556200018e565b82601f106200015d57805160ff19168380011785556200018e565b828001600101855582156200018e579182015b828111156200018d57825182559160200191906001019062000170565b5b5090506200019d9190620001a1565b5090565b5b80821115620001bc576000816000905550600101620001a2565b5090565b60006002820490506001821680620001d957607f821691505b60208210811415620001f057620001ef620001f6565b5b50919050565b7f4e487b7100000000000000000000000000000000000000000000000000000000600052602260045260246000fd5b61544080620002356000396000f3fe6080604052600436106101355760003560e01c80636352211e116100ab578063b88d4fde1161006f578063b88d4fde1461043b578063c87b56dd14610464578063cff21203146104a1578063dbaa992f146104ca578063df845dd9146104f5578063e985e9c51461053757610135565b80636352211e1461034457806370a082311461038157806395d89b41146103be578063a0712d68146103e9578063a22cb4651461041257610135565b80630ce0a07a116100fd5780630ce0a07a146102315780631354bdf81461025c57806323b872dd1461028557806339cb3c9a146102ae57806342842e0e146102de57806351af4e9a1461030757610135565b806301ffc9a71461013a57806306fdde0314610177578063081812fc146101a2578063095ea7b3146101df5780630a5bad6c14610208575b600080fd5b34801561014657600080fd5b50610161600480360381019061015c9190613c2b565b610574565b60405161016e9190614353565b60405180910390f35b34801561018357600080fd5b5061018c610656565b604051610199919061436e565b60405180910390f35b3480156101ae57600080fd5b506101c960048036038101906101c49190613cbe565b6106e8565b6040516101d691906142ca565b60405180910390f35b3480156101eb57600080fd5b5061020660048036038101906102019190613bef565b61076d565b005b34801561021457600080fd5b5061022f600480360381019061022a9190613cbe565b610885565b005b34801561023d57600080fd5b50610246610e87565b6040516102539190614331565b60405180910390f35b34801561026857600080fd5b50610283600480360381019061027e9190613cbe565b610f1c565b005b34801561029157600080fd5b506102ac60048036038101906102a79190613ae9565b6112d6565b005b6102c860048036038101906102c39190613c7d565b611336565b6040516102d591906146d0565b60405180910390f35b3480156102ea57600080fd5b5061030560048036038101906103009190613ae9565b61178b565b005b34801561031357600080fd5b5061032e60048036038101906103299190613cbe565b6117ab565b60405161033b9190614353565b60405180910390f35b34801561035057600080fd5b5061036b60048036038101906103669190613cbe565b6119b2565b60405161037891906142ca565b60405180910390f35b34801561038d57600080fd5b506103a860048036038101906103a39190613a84565b611a64565b6040516103b591906146d0565b60405180910390f35b3480156103ca57600080fd5b506103d3611b1c565b6040516103e0919061436e565b60405180910390f35b3480156103f557600080fd5b50610410600480360381019061040b9190613cbe565b611bae565b005b34801561041e57600080fd5b5061043960048036038101906104349190613bb3565b611eec565b005b34801561044757600080fd5b50610462600480360381019061045d9190613b38565b611f02565b005b34801561047057600080fd5b5061048b60048036038101906104869190613cbe565b611f64565b604051610498919061436e565b60405180910390f35b3480156104ad57600080fd5b506104c860048036038101906104c39190613cbe565b611fce565b005b3480156104d657600080fd5b506104df612396565b6040516104ec91906146d0565b60405180910390f35b34801561050157600080fd5b5061051c60048036038101906105179190613cbe565b61239c565b60405161052e9695949392919061473d565b60405180910390f35b34801561054357600080fd5b5061055e60048036038101906105599190613aad565b612670565b60405161056b9190614353565b60405180910390f35b60007f80ac58cd000000000000000000000000000000000000000000000000000000007bffffffffffffffffffffffffffffffffffffffffffffffffffffffff1916827bffffffffffffffffffffffffffffffffffffffffffffffffffffffff1916148061063f57507f5b5e139f000000000000000000000000000000000000000000000000000000007bffffffffffffffffffffffffffffffffffffffffffffffffffffffff1916827bffffffffffffffffffffffffffffffffffffffffffffffffffffffff1916145b8061064f575061064e82612704565b5b9050919050565b60606000805461066590614ad7565b80601f016020809104026020016040519081016040528092919081815260200182805461069190614ad7565b80156106de5780601f106106b3576101008083540402835291602001916106de565b820191906000526020600020905b8154815290600101906020018083116106c157829003601f168201915b5050505050905090565b60006106f38261276e565b610732576040517f08c379a0000000000000000000000000000000000000000000000000000000008152600401610729906145d0565b60405180910390fd5b6004600083815260200190815260200160002060009054906101000a900473ffffffffffffffffffffffffffffffffffffffff169050919050565b6000610778826119b2565b90508073ffffffffffffffffffffffffffffffffffffffff168373ffffffffffffffffffffffffffffffffffffffff1614156107e9576040517f08c379a00000000000000000000000000000000000000000000000000000000081526004016107e090614650565b60405180910390fd5b8073ffffffffffffffffffffffffffffffffffffffff166108086127da565b73ffffffffffffffffffffffffffffffffffffffff1614806108375750610836816108316127da565b612670565b5b610876576040517f08c379a000000000000000000000000000000000000000000000000000000000815260040161086d906144f0565b60405180910390fd5b61088083836127e2565b505050565b80600c81815481106108c0577f4e487b7100000000000000000000000000000000000000000000000000000000600052603260045260246000fd5b906000526020600020906007020160020160000160009054906101000a900473ffffffffffffffffffffffffffffffffffffffff1673ffffffffffffffffffffffffffffffffffffffff163373ffffffffffffffffffffffffffffffffffffffff1614610962576040517f08c379a000000000000000000000000000000000000000000000000000000000815260040161095990614550565b60405180910390fd5b8160018081111561099c577f4e487b7100000000000000000000000000000000000000000000000000000000600052602160045260246000fd5b600c82815481106109d6577f4e487b7100000000000000000000000000000000000000000000000000000000600052603260045260246000fd5b906000526020600020906007020160050160009054906101000a900460ff166001811115610a2d577f4e487b7100000000000000000000000000000000000000000000000000000000600052602160045260246000fd5b14610a6d576040517f08c379a0000000000000000000000000000000000000000000000000000000008152600401610a6490614490565b60405180910390fd5b600180811115610aa6577f4e487b7100000000000000000000000000000000000000000000000000000000600052602160045260246000fd5b600c8481548110610ae0577f4e487b7100000000000000000000000000000000000000000000000000000000600052603260045260246000fd5b906000526020600020906007020160020160000160149054906101000a900460ff166001811115610b3a577f4e487b7100000000000000000000000000000000000000000000000000000000600052602160045260246000fd5b14610b7a576040517f08c379a0000000000000000000000000000000000000000000000000000000008152600401610b7190614430565b60405180910390fd5b60006001811115610bb4577f4e487b7100000000000000000000000000000000000000000000000000000000600052602160045260246000fd5b600c8481548110610bee577f4e487b7100000000000000000000000000000000000000000000000000000000600052603260045260246000fd5b906000526020600020906007020160020160000160159054906101000a900460ff166001811115610c48577f4e487b7100000000000000000000000000000000000000000000000000000000600052602160045260246000fd5b14610c88576040517f08c379a0000000000000000000000000000000000000000000000000000000008152600401610c7f90614570565b60405180910390fd5b600c8381548110610cc2577f4e487b7100000000000000000000000000000000000000000000000000000000600052603260045260246000fd5b906000526020600020906007020160020160000160009054906101000a900473ffffffffffffffffffffffffffffffffffffffff1673ffffffffffffffffffffffffffffffffffffffff166108fc6009549081150290604051600060405180830381858888f19350505050158015610d3e573d6000803e3d6000fd5b50600954600c8481548110610d7c577f4e487b7100000000000000000000000000000000000000000000000000000000600052603260045260246000fd5b90600052602060002090600702016004016000828254610d9c919061497e565b925050819055506001600c8481548110610ddf577f4e487b7100000000000000000000000000000000000000000000000000000000600052603260045260246000fd5b906000526020600020906007020160020160000160156101000a81548160ff02191690836001811115610e3b577f4e487b7100000000000000000000000000000000000000000000000000000000600052602160045260246000fd5b0217905550610e498361289b565b7f168914fffbfad46639afcc9c0115ab22cab8a9074be0ad7e22fbfaca8b85d3938333604051610e7a9291906146eb565b60405180910390a1505050565b6060600b60003373ffffffffffffffffffffffffffffffffffffffff1673ffffffffffffffffffffffffffffffffffffffff168152602001908152602001600020805480602002602001604051908101604052809291908181526020018280548015610f1257602002820191906000526020600020905b815481526020019060010190808311610efe575b5050505050905090565b80600c8181548110610f57577f4e487b7100000000000000000000000000000000000000000000000000000000600052603260045260246000fd5b906000526020600020906007020160020160000160009054906101000a900473ffffffffffffffffffffffffffffffffffffffff1673ffffffffffffffffffffffffffffffffffffffff163373ffffffffffffffffffffffffffffffffffffffff1614610ff9576040517f08c379a0000000000000000000000000000000000000000000000000000000008152600401610ff090614550565b60405180910390fd5b8160006001811115611034577f4e487b7100000000000000000000000000000000000000000000000000000000600052602160045260246000fd5b600c828154811061106e577f4e487b7100000000000000000000000000000000000000000000000000000000600052603260045260246000fd5b906000526020600020906007020160050160009054906101000a900460ff1660018111156110c5577f4e487b7100000000000000000000000000000000000000000000000000000000600052602160045260246000fd5b14611105576040517f08c379a00000000000000000000000000000000000000000000000000000000081526004016110fc90614390565b60405180910390fd5b600261111084612a88565b11611150576040517f08c379a0000000000000000000000000000000000000000000000000000000008152600401611147906145f0565b60405180910390fd5b6001600c848154811061118c577f4e487b7100000000000000000000000000000000000000000000000000000000600052603260045260246000fd5b906000526020600020906007020160050160006101000a81548160ff021916908360018111156111e5577f4e487b7100000000000000000000000000000000000000000000000000000000600052602160045260246000fd5b02179055506111f383612c07565b6000600181111561122d577f4e487b7100000000000000000000000000000000000000000000000000000000600052602160045260246000fd5b600c8481548110611267577f4e487b7100000000000000000000000000000000000000000000000000000000600052603260045260246000fd5b906000526020600020906007020160020160000160149054906101000a900460ff1660018111156112c1577f4e487b7100000000000000000000000000000000000000000000000000000000600052602160045260246000fd5b14156112d1576112d08361289b565b5b505050565b6112e76112e16127da565b82612e99565b611326576040517f08c379a000000000000000000000000000000000000000000000000000000000815260040161131d90614690565b60405180910390fd5b611331838383612f77565b505050565b6000600954341461137c576040517f08c379a0000000000000000000000000000000000000000000000000000000008152600401611373906146b0565b60405180910390fd5b60006040518060c00160405280600a5481526020018481526020016040518060a001604052803373ffffffffffffffffffffffffffffffffffffffff168152602001600060018111156113f8577f4e487b7100000000000000000000000000000000000000000000000000000000600052602160045260246000fd5b815260200160006001811115611437577f4e487b7100000000000000000000000000000000000000000000000000000000600052602160045260246000fd5b81526020016000151581526020016040518060600160405280600015151515815260200160001515151581526020016000151515158152508152508152602001348152602001600060018111156114b7577f4e487b7100000000000000000000000000000000000000000000000000000000600052602160045260246000fd5b8152602001428152509050600c8190806001815401808255809150506001900390600052602060002090600702016000909190919091506000820151816000015560208201518160010190805190602001906115149291906137bd565b5060408201518160020160008201518160000160006101000a81548173ffffffffffffffffffffffffffffffffffffffff021916908373ffffffffffffffffffffffffffffffffffffffff16021790555060208201518160000160146101000a81548160ff021916908360018111156115b6577f4e487b7100000000000000000000000000000000000000000000000000000000600052602160045260246000fd5b021790555060408201518160000160156101000a81548160ff0219169083600181111561160c577f4e487b7100000000000000000000000000000000000000000000000000000000600052602160045260246000fd5b021790555060608201518160000160166101000a81548160ff021916908315150217905550608082015181600101906003611648929190613843565b5050506060820151816004015560808201518160050160006101000a81548160ff021916908360018111156116a6577f4e487b7100000000000000000000000000000000000000000000000000000000600052602160045260246000fd5b021790555060a0820151816006015550507f381a61e27db90363367908ad325aa61cbb84246330929930a82a9d592eb3af98600a54336040516116ea9291906146eb565b60405180910390a1600b60003373ffffffffffffffffffffffffffffffffffffffff1673ffffffffffffffffffffffffffffffffffffffff168152602001908152602001600020600a5490806001815401808255809150506001900390600052602060002001600090919091909150556001600a600082825461176d91906148f7565b925050819055506001600a54611783919061497e565b915050919050565b6117a683838360405180602001604052806000815250611f02565b505050565b600081600060018111156117e8577f4e487b7100000000000000000000000000000000000000000000000000000000600052602160045260246000fd5b600c8281548110611822577f4e487b7100000000000000000000000000000000000000000000000000000000600052603260045260246000fd5b906000526020600020906007020160050160009054906101000a900460ff166001811115611879577f4e487b7100000000000000000000000000000000000000000000000000000000600052602160045260246000fd5b146118b9576040517f08c379a00000000000000000000000000000000000000000000000000000000081526004016118b090614390565b60405180910390fd5b82600c81815481106118f4577f4e487b7100000000000000000000000000000000000000000000000000000000600052603260045260246000fd5b906000526020600020906007020160020160000160009054906101000a900473ffffffffffffffffffffffffffffffffffffffff1673ffffffffffffffffffffffffffffffffffffffff163373ffffffffffffffffffffffffffffffffffffffff1614611996576040517f08c379a000000000000000000000000000000000000000000000000000000000815260040161198d90614550565b60405180910390fd5b60006119a185612a88565b905060038110159350505050919050565b6000806002600084815260200190815260200160002060009054906101000a900473ffffffffffffffffffffffffffffffffffffffff169050600073ffffffffffffffffffffffffffffffffffffffff168173ffffffffffffffffffffffffffffffffffffffff161415611a5b576040517f08c379a0000000000000000000000000000000000000000000000000000000008152600401611a5290614530565b60405180910390fd5b80915050919050565b60008073ffffffffffffffffffffffffffffffffffffffff168273ffffffffffffffffffffffffffffffffffffffff161415611ad5576040517f08c379a0000000000000000000000000000000000000000000000000000000008152600401611acc90614510565b60405180910390fd5b600360008373ffffffffffffffffffffffffffffffffffffffff1673ffffffffffffffffffffffffffffffffffffffff168152602001908152602001600020549050919050565b606060018054611b2b90614ad7565b80601f0160208091040260200160405190810160405280929190818152602001828054611b5790614ad7565b8015611ba45780601f10611b7957610100808354040283529160200191611ba4565b820191906000526020600020905b815481529060010190602001808311611b8757829003601f168201915b5050505050905090565b80600c8181548110611be9577f4e487b7100000000000000000000000000000000000000000000000000000000600052603260045260246000fd5b906000526020600020906007020160020160000160009054906101000a900473ffffffffffffffffffffffffffffffffffffffff1673ffffffffffffffffffffffffffffffffffffffff163373ffffffffffffffffffffffffffffffffffffffff1614611c8b576040517f08c379a0000000000000000000000000000000000000000000000000000000008152600401611c8290614550565b60405180910390fd5b600180811115611cc4577f4e487b7100000000000000000000000000000000000000000000000000000000600052602160045260246000fd5b600c8381548110611cfe577f4e487b7100000000000000000000000000000000000000000000000000000000600052603260045260246000fd5b906000526020600020906007020160020160000160149054906101000a900460ff166001811115611d58577f4e487b7100000000000000000000000000000000000000000000000000000000600052602160045260246000fd5b14611d98576040517f08c379a0000000000000000000000000000000000000000000000000000000008152600401611d8f90614630565b60405180910390fd5b60001515600c8381548110611dd6577f4e487b7100000000000000000000000000000000000000000000000000000000600052603260045260246000fd5b906000526020600020906007020160020160000160169054906101000a900460ff16151514611e3a576040517f08c379a0000000000000000000000000000000000000000000000000000000008152600401611e31906145b0565b60405180910390fd5b6000611e45336131de565b90506001600c8481548110611e83577f4e487b7100000000000000000000000000000000000000000000000000000000600052603260045260246000fd5b906000526020600020906007020160020160000160166101000a81548160ff0219169083151502179055507f4c80e5f3ca81b9182a3fdddf2ecbaebaf7b139c1a32883aedc0fc76738b18f7f8382604051611edf9291906147a9565b60405180910390a1505050565b611efe611ef76127da565b8383613256565b5050565b611f13611f0d6127da565b83612e99565b611f52576040517f08c379a0000000000000000000000000000000000000000000000000000000008152600401611f4990614690565b60405180910390fd5b611f5e848484846133c3565b50505050565b6060611f6f8261276e565b611fae576040517f08c379a0000000000000000000000000000000000000000000000000000000008152600401611fa590614610565b60405180910390fd5b6040518060800160405280604381526020016153c8604391399050919050565b8060006001811115612009577f4e487b7100000000000000000000000000000000000000000000000000000000600052602160045260246000fd5b600c8281548110612043577f4e487b7100000000000000000000000000000000000000000000000000000000600052603260045260246000fd5b906000526020600020906007020160050160009054906101000a900460ff16600181111561209a577f4e487b7100000000000000000000000000000000000000000000000000000000600052602160045260246000fd5b146120da576040517f08c379a00000000000000000000000000000000000000000000000000000000081526004016120d190614390565b60405180910390fd5b81600c8181548110612115577f4e487b7100000000000000000000000000000000000000000000000000000000600052603260045260246000fd5b906000526020600020906007020160020160000160009054906101000a900473ffffffffffffffffffffffffffffffffffffffff1673ffffffffffffffffffffffffffffffffffffffff163373ffffffffffffffffffffffffffffffffffffffff16146121b7576040517f08c379a00000000000000000000000000000000000000000000000000000000081526004016121ae90614550565b60405180910390fd5b60006121c284612a88565b905060038110612207576040517f08c379a00000000000000000000000000000000000000000000000000000000081526004016121fe90614670565b60405180910390fd5b60001515600c8581548110612245577f4e487b7100000000000000000000000000000000000000000000000000000000600052603260045260246000fd5b90600052602060002090600702016002016001018260038110612291577f4e487b7100000000000000000000000000000000000000000000000000000000600052603260045260246000fd5b602091828204019190069054906101000a900460ff161515146122e9576040517f08c379a00000000000000000000000000000000000000000000000000000000081526004016122e0906144d0565b60405180910390fd5b6001600c8581548110612325577f4e487b7100000000000000000000000000000000000000000000000000000000600052603260045260246000fd5b90600052602060002090600702016002016001018260038110612371577f4e487b7100000000000000000000000000000000000000000000000000000000600052603260045260246000fd5b602091828204019190066101000a81548160ff02191690831515021790555050505050565b600a5481565b600c81815481106123ac57600080fd5b90600052602060002090600702016000915090508060000154908060010180546123d590614ad7565b80601f016020809104026020016040519081016040528092919081815260200182805461240190614ad7565b801561244e5780601f106124235761010080835404028352916020019161244e565b820191906000526020600020905b81548152906001019060200180831161243157829003601f168201915b505050505090806002016040518060a00160405290816000820160009054906101000a900473ffffffffffffffffffffffffffffffffffffffff1673ffffffffffffffffffffffffffffffffffffffff1673ffffffffffffffffffffffffffffffffffffffff1681526020016000820160149054906101000a900460ff166001811115612504577f4e487b7100000000000000000000000000000000000000000000000000000000600052602160045260246000fd5b600181111561253c577f4e487b7100000000000000000000000000000000000000000000000000000000600052602160045260246000fd5b81526020016000820160159054906101000a900460ff16600181111561258b577f4e487b7100000000000000000000000000000000000000000000000000000000600052602160045260246000fd5b60018111156125c3577f4e487b7100000000000000000000000000000000000000000000000000000000600052602160045260246000fd5b81526020016000820160169054906101000a900460ff1615151515815260200160018201600380602002604051908101604052809291908260038015612643576020028201916000905b82829054906101000a900460ff1615158152602001906001019060208260000104928301926001038202915080841161260d5790505b505050505081525050908060040154908060050160009054906101000a900460ff16908060060154905086565b6000600560008473ffffffffffffffffffffffffffffffffffffffff1673ffffffffffffffffffffffffffffffffffffffff16815260200190815260200160002060008373ffffffffffffffffffffffffffffffffffffffff1673ffffffffffffffffffffffffffffffffffffffff16815260200190815260200160002060009054906101000a900460ff16905092915050565b60007f01ffc9a7000000000000000000000000000000000000000000000000000000007bffffffffffffffffffffffffffffffffffffffffffffffffffffffff1916827bffffffffffffffffffffffffffffffffffffffffffffffffffffffff1916149050919050565b60008073ffffffffffffffffffffffffffffffffffffffff166002600084815260200190815260200160002060009054906101000a900473ffffffffffffffffffffffffffffffffffffffff1673ffffffffffffffffffffffffffffffffffffffff1614159050919050565b600033905090565b816004600083815260200190815260200160002060006101000a81548173ffffffffffffffffffffffffffffffffffffffff021916908373ffffffffffffffffffffffffffffffffffffffff160217905550808273ffffffffffffffffffffffffffffffffffffffff16612855836119b2565b73ffffffffffffffffffffffffffffffffffffffff167f8c5be1e5ebec7d5bd14f71427d1e84f3dd0314c0f7b2291e5b200ac8c7c3b92560405160405180910390a45050565b6000600b60003373ffffffffffffffffffffffffffffffffffffffff1673ffffffffffffffffffffffffffffffffffffffff168152602001908152602001600020905060005b8180549050811015612a345782828281548110612927577f4e487b7100000000000000000000000000000000000000000000000000000000600052603260045260246000fd5b90600052602060002001541415612a2157816001838054905061294a919061497e565b81548110612981577f4e487b7100000000000000000000000000000000000000000000000000000000600052603260045260246000fd5b90600052602060002001548282815481106129c5577f4e487b7100000000000000000000000000000000000000000000000000000000600052603260045260246000fd5b906000526020600020018190555081805480612a0a577f4e487b7100000000000000000000000000000000000000000000000000000000600052603160045260246000fd5b600190038181906000526020600020016000905590555b8080612a2c90614b3a565b9150506128e1565b5080600b60003373ffffffffffffffffffffffffffffffffffffffff1673ffffffffffffffffffffffffffffffffffffffff168152602001908152602001600020908054612a839291906138dc565b505050565b60008160006001811115612ac5577f4e487b7100000000000000000000000000000000000000000000000000000000600052602160045260246000fd5b600c8281548110612aff577f4e487b7100000000000000000000000000000000000000000000000000000000600052603260045260246000fd5b906000526020600020906007020160050160009054906101000a900460ff166001811115612b56577f4e487b7100000000000000000000000000000000000000000000000000000000600052602160045260246000fd5b14612b96576040517f08c379a0000000000000000000000000000000000000000000000000000000008152600401612b8d90614390565b60405180910390fd5b6000603c600c8581548110612bd4577f4e487b7100000000000000000000000000000000000000000000000000000000600052603260045260246000fd5b90600052602060002090600702016006015442612bf1919061497e565b612bfb919061494d565b90508092505050919050565b6001600c8281548110612c43577f4e487b7100000000000000000000000000000000000000000000000000000000600052603260045260246000fd5b906000526020600020906007020160020160000160146101000a81548160ff02191690836001811115612c9f577f4e487b7100000000000000000000000000000000000000000000000000000000600052602160045260246000fd5b021790555060005b6003811015612e0157600c8281548110612cea577f4e487b7100000000000000000000000000000000000000000000000000000000600052603260045260246000fd5b90600052602060002090600702016002016001018160038110612d36577f4e487b7100000000000000000000000000000000000000000000000000000000600052603260045260246000fd5b602091828204019190069054906101000a900460ff16612dee576000600c8381548110612d8c577f4e487b7100000000000000000000000000000000000000000000000000000000600052603260045260246000fd5b906000526020600020906007020160020160000160146101000a81548160ff02191690836001811115612de8577f4e487b7100000000000000000000000000000000000000000000000000000000600052602160045260246000fd5b02179055505b8080612df990614b3a565b915050612ca7565b507fc8b5313552b8be7e6e143e65bc134fdc90527c98af49273034db575290206afe81600c8381548110612e5e577f4e487b7100000000000000000000000000000000000000000000000000000000600052603260045260246000fd5b906000526020600020906007020160020160000160149054906101000a900460ff16604051612e8e929190614714565b60405180910390a150565b6000612ea48261276e565b612ee3576040517f08c379a0000000000000000000000000000000000000000000000000000000008152600401612eda906144b0565b60405180910390fd5b6000612eee836119b2565b90508073ffffffffffffffffffffffffffffffffffffffff168473ffffffffffffffffffffffffffffffffffffffff161480612f5d57508373ffffffffffffffffffffffffffffffffffffffff16612f45846106e8565b73ffffffffffffffffffffffffffffffffffffffff16145b80612f6e5750612f6d8185612670565b5b91505092915050565b8273ffffffffffffffffffffffffffffffffffffffff16612f97826119b2565b73ffffffffffffffffffffffffffffffffffffffff1614612fed576040517f08c379a0000000000000000000000000000000000000000000000000000000008152600401612fe4906143d0565b60405180910390fd5b600073ffffffffffffffffffffffffffffffffffffffff168273ffffffffffffffffffffffffffffffffffffffff16141561305d576040517f08c379a000000000000000000000000000000000000000000000000000000000815260040161305490614450565b60405180910390fd5b61306883838361341f565b6130736000826127e2565b6001600360008573ffffffffffffffffffffffffffffffffffffffff1673ffffffffffffffffffffffffffffffffffffffff16815260200190815260200160002060008282546130c3919061497e565b925050819055506001600360008473ffffffffffffffffffffffffffffffffffffffff1673ffffffffffffffffffffffffffffffffffffffff168152602001908152602001600020600082825461311a91906148f7565b92505081905550816002600083815260200190815260200160002060006101000a81548173ffffffffffffffffffffffffffffffffffffffff021916908373ffffffffffffffffffffffffffffffffffffffff160217905550808273ffffffffffffffffffffffffffffffffffffffff168473ffffffffffffffffffffffffffffffffffffffff167fddf252ad1be2c89b69c2b068fc378daa952ba7f163c4a11628f55a4df523b3ef60405160405180910390a46131d9838383613424565b505050565b600060075460065410613226576040517f08c379a000000000000000000000000000000000000000000000000000000000815260040161321d906143f0565b60405180910390fd5b60016006600082825461323991906148f7565b9250508190555061324c82600654613429565b6006549050919050565b8173ffffffffffffffffffffffffffffffffffffffff168373ffffffffffffffffffffffffffffffffffffffff1614156132c5576040517f08c379a00000000000000000000000000000000000000000000000000000000081526004016132bc90614470565b60405180910390fd5b80600560008573ffffffffffffffffffffffffffffffffffffffff1673ffffffffffffffffffffffffffffffffffffffff16815260200190815260200160002060008473ffffffffffffffffffffffffffffffffffffffff1673ffffffffffffffffffffffffffffffffffffffff16815260200190815260200160002060006101000a81548160ff0219169083151502179055508173ffffffffffffffffffffffffffffffffffffffff168373ffffffffffffffffffffffffffffffffffffffff167f17307eab39ab6107e8899845ad3d59bd9653f200f220920489ca2b5937696c31836040516133b69190614353565b60405180910390a3505050565b6133ce848484612f77565b6133da84848484613603565b613419576040517f08c379a0000000000000000000000000000000000000000000000000000000008152600401613410906143b0565b60405180910390fd5b50505050565b505050565b505050565b600073ffffffffffffffffffffffffffffffffffffffff168273ffffffffffffffffffffffffffffffffffffffff161415613499576040517f08c379a000000000000000000000000000000000000000000000000000000000815260040161349090614590565b60405180910390fd5b6134a28161276e565b156134e2576040517f08c379a00000000000000000000000000000000000000000000000000000000081526004016134d990614410565b60405180910390fd5b6134ee6000838361341f565b6001600360008473ffffffffffffffffffffffffffffffffffffffff1673ffffffffffffffffffffffffffffffffffffffff168152602001908152602001600020600082825461353e91906148f7565b92505081905550816002600083815260200190815260200160002060006101000a81548173ffffffffffffffffffffffffffffffffffffffff021916908373ffffffffffffffffffffffffffffffffffffffff160217905550808273ffffffffffffffffffffffffffffffffffffffff16600073ffffffffffffffffffffffffffffffffffffffff167fddf252ad1be2c89b69c2b068fc378daa952ba7f163c4a11628f55a4df523b3ef60405160405180910390a46135ff60008383613424565b5050565b60006136248473ffffffffffffffffffffffffffffffffffffffff1661379a565b1561378d578373ffffffffffffffffffffffffffffffffffffffff1663150b7a0261364d6127da565b8786866040518563ffffffff1660e01b815260040161366f94939291906142e5565b602060405180830381600087803b15801561368957600080fd5b505af19250505080156136ba57506040513d601f19601f820116820180604052508101906136b79190613c54565b60015b61373d573d80600081146136ea576040519150601f19603f3d011682016040523d82523d6000602084013e6136ef565b606091505b50600081511415613735576040517f08c379a000000000000000000000000000000000000000000000000000000000815260040161372c906143b0565b60405180910390fd5b805181602001fd5b63150b7a0260e01b7bffffffffffffffffffffffffffffffffffffffffffffffffffffffff1916817bffffffffffffffffffffffffffffffffffffffffffffffffffffffff191614915050613792565b600190505b949350505050565b6000808273ffffffffffffffffffffffffffffffffffffffff163b119050919050565b8280546137c990614ad7565b90600052602060002090601f0160209004810192826137eb5760008555613832565b82601f1061380457805160ff1916838001178555613832565b82800160010185558215613832579182015b82811115613831578251825591602001919060010190613816565b5b50905061383f919061392e565b5090565b826003601f016020900481019282156138cb5791602002820160005b8382111561389c57835183826101000a81548160ff021916908315150217905550926020019260010160208160000104928301926001030261385f565b80156138c95782816101000a81549060ff021916905560010160208160000104928301926001030261389c565b505b5090506138d8919061392e565b5090565b82805482825590600052602060002090810192821561391d5760005260206000209182015b8281111561391c578254825591600101919060010190613901565b5b50905061392a919061392e565b5090565b5b8082111561394757600081600090555060010161392f565b5090565b600061395e613959846147f7565b6147d2565b90508281526020810184848401111561397657600080fd5b613981848285614a95565b509392505050565b600061399c61399784614828565b6147d2565b9050828152602081018484840111156139b457600080fd5b6139bf848285614a95565b509392505050565b6000813590506139d68161536b565b92915050565b6000813590506139eb81615382565b92915050565b600081359050613a0081615399565b92915050565b600081519050613a1581615399565b92915050565b600082601f830112613a2c57600080fd5b8135613a3c84826020860161394b565b91505092915050565b600082601f830112613a5657600080fd5b8135613a66848260208601613989565b91505092915050565b600081359050613a7e816153b0565b92915050565b600060208284031215613a9657600080fd5b6000613aa4848285016139c7565b91505092915050565b60008060408385031215613ac057600080fd5b6000613ace858286016139c7565b9250506020613adf858286016139c7565b9150509250929050565b600080600060608486031215613afe57600080fd5b6000613b0c868287016139c7565b9350506020613b1d868287016139c7565b9250506040613b2e86828701613a6f565b9150509250925092565b60008060008060808587031215613b4e57600080fd5b6000613b5c878288016139c7565b9450506020613b6d878288016139c7565b9350506040613b7e87828801613a6f565b925050606085013567ffffffffffffffff811115613b9b57600080fd5b613ba787828801613a1b565b91505092959194509250565b60008060408385031215613bc657600080fd5b6000613bd4858286016139c7565b9250506020613be5858286016139dc565b9150509250929050565b60008060408385031215613c0257600080fd5b6000613c10858286016139c7565b9250506020613c2185828601613a6f565b9150509250929050565b600060208284031215613c3d57600080fd5b6000613c4b848285016139f1565b91505092915050565b600060208284031215613c6657600080fd5b6000613c7484828501613a06565b91505092915050565b600060208284031215613c8f57600080fd5b600082013567ffffffffffffffff811115613ca957600080fd5b613cb584828501613a45565b91505092915050565b600060208284031215613cd057600080fd5b6000613cde84828501613a6f565b91505092915050565b6000613cf38383613dea565b60208301905092915050565b6000613d0b83836142ac565b60208301905092915050565b613d20816149b2565b82525050565b613d2f816149b2565b82525050565b613d3e81614873565b613d4881846148b9565b9250613d5382614859565b8060005b83811015613d84578151613d6b8782613ce7565b9650613d768361489f565b925050600181019050613d57565b505050505050565b6000613d978261487e565b613da181856148c4565b9350613dac83614863565b8060005b83811015613ddd578151613dc48882613cff565b9750613dcf836148ac565b925050600181019050613db0565b5085935050505092915050565b613df3816149c4565b82525050565b613e02816149c4565b82525050565b6000613e1382614889565b613e1d81856148d5565b9350613e2d818560208601614aa4565b613e3681614c6e565b840191505092915050565b613e4a81614a5f565b82525050565b613e5981614a71565b82525050565b613e6881614a71565b82525050565b613e7781614a83565b82525050565b6000613e8882614894565b613e9281856148e6565b9350613ea2818560208601614aa4565b613eab81614c6e565b840191505092915050565b6000613ec3601d836148e6565b9150613ece82614c7f565b602082019050919050565b6000613ee66032836148e6565b9150613ef182614ca8565b604082019050919050565b6000613f096025836148e6565b9150613f1482614cf7565b604082019050919050565b6000613f2c6018836148e6565b9150613f3782614d46565b602082019050919050565b6000613f4f601c836148e6565b9150613f5a82614d6f565b602082019050919050565b6000613f726028836148e6565b9150613f7d82614d98565b604082019050919050565b6000613f956024836148e6565b9150613fa082614de7565b604082019050919050565b6000613fb86019836148e6565b9150613fc382614e36565b602082019050919050565b6000613fdb6020836148e6565b9150613fe682614e5f565b602082019050919050565b6000613ffe602c836148e6565b915061400982614e88565b604082019050919050565b60006140216024836148e6565b915061402c82614ed7565b604082019050919050565b60006140446038836148e6565b915061404f82614f26565b604082019050919050565b6000614067602a836148e6565b915061407282614f75565b604082019050919050565b600061408a6029836148e6565b915061409582614fc4565b604082019050919050565b60006140ad6019836148e6565b91506140b882615013565b602082019050919050565b60006140d0602b836148e6565b91506140db8261503c565b604082019050919050565b60006140f36020836148e6565b91506140fe8261508b565b602082019050919050565b6000614116601b836148e6565b9150614121826150b4565b602082019050919050565b6000614139602c836148e6565b9150614144826150dd565b604082019050919050565b600061415c6026836148e6565b91506141678261512c565b604082019050919050565b600061417f602f836148e6565b915061418a8261517b565b604082019050919050565b60006141a2601e836148e6565b91506141ad826151ca565b602082019050919050565b60006141c56021836148e6565b91506141d0826151f3565b604082019050919050565b60006141e86027836148e6565b91506141f382615242565b604082019050919050565b600061420b6031836148e6565b915061421682615291565b604082019050919050565b600061422e6039836148e6565b9150614239826152e0565b604082019050919050565b60e08201600082015161425a6000850182613d17565b50602082015161426d6020850182613e50565b5060408201516142806040850182613e41565b5060608201516142936060850182613dea565b5060808201516142a66080850182613d35565b50505050565b6142b581614a55565b82525050565b6142c481614a55565b82525050565b60006020820190506142df6000830184613d26565b92915050565b60006080820190506142fa6000830187613d26565b6143076020830186613d26565b61431460408301856142bb565b81810360608301526143268184613e08565b905095945050505050565b6000602082019050818103600083015261434b8184613d8c565b905092915050565b60006020820190506143686000830184613df9565b92915050565b600060208201905081810360008301526143888184613e7d565b905092915050565b600060208201905081810360008301526143a981613eb6565b9050919050565b600060208201905081810360008301526143c981613ed9565b9050919050565b600060208201905081810360008301526143e981613efc565b9050919050565b6000602082019050818103600083015261440981613f1f565b9050919050565b6000602082019050818103600083015261442981613f42565b9050919050565b6000602082019050818103600083015261444981613f65565b9050919050565b6000602082019050818103600083015261446981613f88565b9050919050565b6000602082019050818103600083015261448981613fab565b9050919050565b600060208201905081810360008301526144a981613fce565b9050919050565b600060208201905081810360008301526144c981613ff1565b9050919050565b600060208201905081810360008301526144e981614014565b9050919050565b6000602082019050818103600083015261450981614037565b9050919050565b600060208201905081810360008301526145298161405a565b9050919050565b600060208201905081810360008301526145498161407d565b9050919050565b60006020820190508181036000830152614569816140a0565b9050919050565b60006020820190508181036000830152614589816140c3565b9050919050565b600060208201905081810360008301526145a9816140e6565b9050919050565b600060208201905081810360008301526145c981614109565b9050919050565b600060208201905081810360008301526145e98161412c565b9050919050565b600060208201905081810360008301526146098161414f565b9050919050565b6000602082019050818103600083015261462981614172565b9050919050565b6000602082019050818103600083015261464981614195565b9050919050565b60006020820190508181036000830152614669816141b8565b9050919050565b60006020820190508181036000830152614689816141db565b9050919050565b600060208201905081810360008301526146a9816141fe565b9050919050565b600060208201905081810360008301526146c981614221565b9050919050565b60006020820190506146e560008301846142bb565b92915050565b600060408201905061470060008301856142bb565b61470d6020830184613d26565b9392505050565b600060408201905061472960008301856142bb565b6147366020830184613e5f565b9392505050565b60006101808201905061475360008301896142bb565b81810360208301526147658188613e7d565b90506147746040830187614244565b6147826101208301866142bb565b614790610140830185613e6e565b61479e6101608301846142bb565b979650505050505050565b60006040820190506147be60008301856142bb565b6147cb60208301846142bb565b9392505050565b60006147dc6147ed565b90506147e88282614b09565b919050565b6000604051905090565b600067ffffffffffffffff82111561481257614811614c3f565b5b61481b82614c6e565b9050602081019050919050565b600067ffffffffffffffff82111561484357614842614c3f565b5b61484c82614c6e565b9050602081019050919050565b6000819050919050565b6000819050602082019050919050565b600060039050919050565b600081519050919050565b600081519050919050565b600081519050919050565b6000602082019050919050565b6000602082019050919050565b600081905092915050565b600082825260208201905092915050565b600082825260208201905092915050565b600082825260208201905092915050565b600061490282614a55565b915061490d83614a55565b9250827fffffffffffffffffffffffffffffffffffffffffffffffffffffffffffffffff0382111561494257614941614b83565b5b828201905092915050565b600061495882614a55565b915061496383614a55565b92508261497357614972614bb2565b5b828204905092915050565b600061498982614a55565b915061499483614a55565b9250828210156149a7576149a6614b83565b5b828203905092915050565b60006149bd82614a35565b9050919050565b60008115159050919050565b60007fffffffff0000000000000000000000000000000000000000000000000000000082169050919050565b6000819050614a0a8261532f565b919050565b6000819050614a1d82615343565b919050565b6000819050614a3082615357565b919050565b600073ffffffffffffffffffffffffffffffffffffffff82169050919050565b6000819050919050565b6000614a6a826149fc565b9050919050565b6000614a7c82614a0f565b9050919050565b6000614a8e82614a22565b9050919050565b82818337600083830152505050565b60005b83811015614ac2578082015181840152602081019050614aa7565b83811115614ad1576000848401525b50505050565b60006002820490506001821680614aef57607f821691505b60208210811415614b0357614b02614c10565b5b50919050565b614b1282614c6e565b810181811067ffffffffffffffff82111715614b3157614b30614c3f565b5b80604052505050565b6000614b4582614a55565b91507fffffffffffffffffffffffffffffffffffffffffffffffffffffffffffffffff821415614b7857614b77614b83565b5b600182019050919050565b7f4e487b7100000000000000000000000000000000000000000000000000000000600052601160045260246000fd5b7f4e487b7100000000000000000000000000000000000000000000000000000000600052601260045260246000fd5b7f4e487b7100000000000000000000000000000000000000000000000000000000600052602160045260246000fd5b7f4e487b7100000000000000000000000000000000000000000000000000000000600052602260045260246000fd5b7f4e487b7100000000000000000000000000000000000000000000000000000000600052604160045260246000fd5b6000601f19601f8301169050919050565b7f45737465207265746f206e6f206573746120656e20766967656e636961000000600082015250565b7f4552433732313a207472616e7366657220746f206e6f6e20455243373231526560008201527f63656976657220696d706c656d656e7465720000000000000000000000000000602082015250565b7f4552433732313a207472616e736665722066726f6d20696e636f72726563742060008201527f6f776e6572000000000000000000000000000000000000000000000000000000602082015250565b7f4e6f20686179206d61732048616269746f734e4654203a280000000000000000600082015250565b7f4552433732313a20746f6b656e20616c7265616479206d696e74656400000000600082015250565b7f456c207265746f206e6f2066756520737570657261646f20706f72206573746560008201527f207573756172696f000000000000000000000000000000000000000000000000602082015250565b7f4552433732313a207472616e7366657220746f20746865207a65726f2061646460008201527f7265737300000000000000000000000000000000000000000000000000000000602082015250565b7f4552433732313a20617070726f766520746f2063616c6c657200000000000000600082015250565b7f456c207265746f20746f6461766961206e6f2068612066696e616c697a61646f600082015250565b7f4552433732313a206f70657261746f7220717565727920666f72206e6f6e657860008201527f697374656e7420746f6b656e0000000000000000000000000000000000000000602082015250565b7f59612073652063756d706c696f20656c207265746f2064656c2064696120646560008201527f20686f7900000000000000000000000000000000000000000000000000000000602082015250565b7f4552433732313a20617070726f76652063616c6c6572206973206e6f74206f7760008201527f6e6572206e6f7220617070726f76656420666f7220616c6c0000000000000000602082015250565b7f4552433732313a2062616c616e636520717565727920666f7220746865207a6560008201527f726f206164647265737300000000000000000000000000000000000000000000602082015250565b7f4552433732313a206f776e657220717565727920666f72206e6f6e657869737460008201527f656e7420746f6b656e0000000000000000000000000000000000000000000000602082015250565b7f4e6f20657320656c205573756172696f2064656c207265746f00000000000000600082015250565b7f45737465207072656d696f2079612066756520636f627261646f20706f72206560008201527f737465207573756172696f000000000000000000000000000000000000000000602082015250565b7f4552433732313a206d696e7420746f20746865207a65726f2061646472657373600082015250565b7f45737465204e4654207961206861207369646f20636f627261646f0000000000600082015250565b7f4552433732313a20617070726f76656420717565727920666f72206e6f6e657860008201527f697374656e7420746f6b656e0000000000000000000000000000000000000000602082015250565b7f546f6461766961206e6f207472616e7363757272696f20656c207469656d706f60008201527f20746f74616c0000000000000000000000000000000000000000000000000000602082015250565b7f4552433732314d657461646174613a2055524920717565727920666f72206e6f60008201527f6e6578697374656e7420746f6b656e0000000000000000000000000000000000602082015250565b7f5573746564206e6f20686120737570657261646f2065737465207265746f0000600082015250565b7f4552433732313a20617070726f76616c20746f2063757272656e74206f776e6560008201527f7200000000000000000000000000000000000000000000000000000000000000602082015250565b7f5961207465726d696e6f20656c207469656d706f2064656c207265746f20646560008201527f2033206469617300000000000000000000000000000000000000000000000000602082015250565b7f4552433732313a207472616e736665722063616c6c6572206973206e6f74206f60008201527f776e6572206e6f7220617070726f766564000000000000000000000000000000602082015250565b7f456c206d6f6e746f206465706f73697461646f206e6f20657320656c20636f7260008201527f726563746f2c20736520726571756965726520312043656c6f00000000000000602082015250565b600281106153405761533f614be1565b5b50565b6002811061535457615353614be1565b5b50565b6002811061536857615367614be1565b5b50565b615374816149b2565b811461537f57600080fd5b50565b61538b816149c4565b811461539657600080fd5b50565b6153a2816149d0565b81146153ad57600080fd5b50565b6153b981614a55565b81146153c457600080fd5b5056fe68747470733a2f2f697066732e696f2f697066732f516d626d4d464845777461647133685a6b726d6f4266786a6e347a4a773567627a43424a3473443355746777326ba26469706673582212204a7aab0296aaeb577cc46ddd5ee8a4ec73fd54d9788b5de11ca326780ae8a69f64736f6c63430008040033",
  "devdoc": {
    "kind": "dev",
    "methods": {
      "approve(address,uint256)": {
        "details": "See {IERC721-approve}."
      },
      "balanceOf(address)": {
        "details": "See {IERC721-balanceOf}."
      },
      "getApproved(uint256)": {
        "details": "See {IERC721-getApproved}."
      },
      "isApprovedForAll(address,address)": {
        "details": "See {IERC721-isApprovedForAll}."
      },
      "name()": {
        "details": "See {IERC721Metadata-name}."
      },
      "ownerOf(uint256)": {
        "details": "See {IERC721-ownerOf}."
      },
      "safeTransferFrom(address,address,uint256)": {
        "details": "See {IERC721-safeTransferFrom}."
      },
      "safeTransferFrom(address,address,uint256,bytes)": {
        "details": "See {IERC721-safeTransferFrom}."
      },
      "setApprovalForAll(address,bool)": {
        "details": "See {IERC721-setApprovalForAll}."
      },
      "supportsInterface(bytes4)": {
        "details": "See {IERC165-supportsInterface}."
      },
      "symbol()": {
        "details": "See {IERC721Metadata-symbol}."
      },
      "tokenURI(uint256)": {
        "details": "See {IERC721Metadata-tokenURI}."
      },
      "transferFrom(address,address,uint256)": {
        "details": "See {IERC721-transferFrom}."
      }
    },
    "version": 1
  },
  "userdoc": {
    "kind": "user",
    "methods": {},
    "version": 1
  },
  "storageLayout": {
    "storage": [
      {
        "astId": 25,
        "contract": "contracts/Habitos.sol:Habitos",
        "label": "_name",
        "offset": 0,
        "slot": "0",
        "type": "t_string_storage"
      },
      {
        "astId": 27,
        "contract": "contracts/Habitos.sol:Habitos",
        "label": "_symbol",
        "offset": 0,
        "slot": "1",
        "type": "t_string_storage"
      },
      {
        "astId": 31,
        "contract": "contracts/Habitos.sol:Habitos",
        "label": "_owners",
        "offset": 0,
        "slot": "2",
        "type": "t_mapping(t_uint256,t_address)"
      },
      {
        "astId": 35,
        "contract": "contracts/Habitos.sol:Habitos",
        "label": "_balances",
        "offset": 0,
        "slot": "3",
        "type": "t_mapping(t_address,t_uint256)"
      },
      {
        "astId": 39,
        "contract": "contracts/Habitos.sol:Habitos",
        "label": "_tokenApprovals",
        "offset": 0,
        "slot": "4",
        "type": "t_mapping(t_uint256,t_address)"
      },
      {
        "astId": 45,
        "contract": "contracts/Habitos.sol:Habitos",
        "label": "_operatorApprovals",
        "offset": 0,
        "slot": "5",
        "type": "t_mapping(t_address,t_mapping(t_address,t_bool))"
      },
      {
        "astId": 1589,
        "contract": "contracts/Habitos.sol:Habitos",
        "label": "token_count",
        "offset": 0,
        "slot": "6",
        "type": "t_uint256"
      },
      {
        "astId": 1592,
        "contract": "contracts/Habitos.sol:Habitos",
        "label": "maxSupply",
        "offset": 0,
        "slot": "7",
        "type": "t_uint256"
      },
      {
        "astId": 1652,
        "contract": "contracts/Habitos.sol:Habitos",
        "label": "author",
        "offset": 0,
        "slot": "8",
        "type": "t_address"
      },
      {
        "astId": 1664,
        "contract": "contracts/Habitos.sol:Habitos",
        "label": "montoReto",
        "offset": 0,
        "slot": "9",
        "type": "t_uint256"
      },
      {
        "astId": 1667,
        "contract": "contracts/Habitos.sol:Habitos",
        "label": "totalRetos",
        "offset": 0,
        "slot": "10",
        "type": "t_uint256"
      },
      {
        "astId": 1672,
        "contract": "contracts/Habitos.sol:Habitos",
        "label": "retosPorUser",
        "offset": 0,
        "slot": "11",
        "type": "t_mapping(t_address,t_array(t_uint256)dyn_storage)"
      },
      {
        "astId": 1715,
        "contract": "contracts/Habitos.sol:Habitos",
        "label": "retos",
        "offset": 0,
        "slot": "12",
        "type": "t_array(t_struct(Reto)1711_storage)dyn_storage"
      }
    ],
    "types": {
      "t_address": {
        "encoding": "inplace",
        "label": "address",
        "numberOfBytes": "20"
      },
      "t_array(t_bool)3_storage": {
        "base": "t_bool",
        "encoding": "inplace",
        "label": "bool[3]",
        "numberOfBytes": "32"
      },
      "t_array(t_struct(Reto)1711_storage)dyn_storage": {
        "base": "t_struct(Reto)1711_storage",
        "encoding": "dynamic_array",
        "label": "struct Habitos.Reto[]",
        "numberOfBytes": "32"
      },
      "t_array(t_uint256)dyn_storage": {
        "base": "t_uint256",
        "encoding": "dynamic_array",
        "label": "uint256[]",
        "numberOfBytes": "32"
      },
      "t_bool": {
        "encoding": "inplace",
        "label": "bool",
        "numberOfBytes": "1"
      },
      "t_enum(CobroPremio)1661": {
        "encoding": "inplace",
        "label": "enum Habitos.CobroPremio",
        "numberOfBytes": "1"
      },
      "t_enum(CumplioReto)1658": {
        "encoding": "inplace",
        "label": "enum Habitos.CumplioReto",
        "numberOfBytes": "1"
      },
      "t_enum(State)1655": {
        "encoding": "inplace",
        "label": "enum Habitos.State",
        "numberOfBytes": "1"
      },
      "t_mapping(t_address,t_array(t_uint256)dyn_storage)": {
        "encoding": "mapping",
        "key": "t_address",
        "label": "mapping(address => uint256[])",
        "numberOfBytes": "32",
        "value": "t_array(t_uint256)dyn_storage"
      },
      "t_mapping(t_address,t_bool)": {
        "encoding": "mapping",
        "key": "t_address",
        "label": "mapping(address => bool)",
        "numberOfBytes": "32",
        "value": "t_bool"
      },
      "t_mapping(t_address,t_mapping(t_address,t_bool))": {
        "encoding": "mapping",
        "key": "t_address",
        "label": "mapping(address => mapping(address => bool))",
        "numberOfBytes": "32",
        "value": "t_mapping(t_address,t_bool)"
      },
      "t_mapping(t_address,t_uint256)": {
        "encoding": "mapping",
        "key": "t_address",
        "label": "mapping(address => uint256)",
        "numberOfBytes": "32",
        "value": "t_uint256"
      },
      "t_mapping(t_uint256,t_address)": {
        "encoding": "mapping",
        "key": "t_uint256",
        "label": "mapping(uint256 => address)",
        "numberOfBytes": "32",
        "value": "t_address"
      },
      "t_string_storage": {
        "encoding": "bytes",
        "label": "string",
        "numberOfBytes": "32"
      },
      "t_struct(Reto)1711_storage": {
        "encoding": "inplace",
        "label": "struct Habitos.Reto",
        "members": [
          {
            "astId": 1698,
            "contract": "contracts/Habitos.sol:Habitos",
            "label": "id",
            "offset": 0,
            "slot": "0",
            "type": "t_uint256"
          },
          {
            "astId": 1700,
            "contract": "contracts/Habitos.sol:Habitos",
            "label": "name",
            "offset": 0,
            "slot": "1",
            "type": "t_string_storage"
          },
          {
            "astId": 1703,
            "contract": "contracts/Habitos.sol:Habitos",
            "label": "user",
            "offset": 0,
            "slot": "2",
            "type": "t_struct(User)1696_storage"
          },
          {
            "astId": 1705,
            "contract": "contracts/Habitos.sol:Habitos",
            "label": "deposito",
            "offset": 0,
            "slot": "4",
            "type": "t_uint256"
          },
          {
            "astId": 1708,
            "contract": "contracts/Habitos.sol:Habitos",
            "label": "estado",
            "offset": 0,
            "slot": "5",
            "type": "t_enum(State)1655"
          },
          {
            "astId": 1710,
            "contract": "contracts/Habitos.sol:Habitos",
            "label": "fechaComienzo",
            "offset": 0,
            "slot": "6",
            "type": "t_uint256"
          }
        ],
        "numberOfBytes": "224"
      },
      "t_struct(User)1696_storage": {
        "encoding": "inplace",
        "label": "struct Habitos.User",
        "members": [
          {
            "astId": 1683,
            "contract": "contracts/Habitos.sol:Habitos",
            "label": "wallet",
            "offset": 0,
            "slot": "0",
            "type": "t_address"
          },
          {
            "astId": 1686,
            "contract": "contracts/Habitos.sol:Habitos",
            "label": "cumplioReto",
            "offset": 20,
            "slot": "0",
            "type": "t_enum(CumplioReto)1658"
          },
          {
            "astId": 1689,
            "contract": "contracts/Habitos.sol:Habitos",
            "label": "cobroPremio",
            "offset": 21,
            "slot": "0",
            "type": "t_enum(CobroPremio)1661"
          },
          {
            "astId": 1691,
            "contract": "contracts/Habitos.sol:Habitos",
            "label": "cobroNFT",
            "offset": 22,
            "slot": "0",
            "type": "t_bool"
          },
          {
            "astId": 1695,
            "contract": "contracts/Habitos.sol:Habitos",
            "label": "dias",
            "offset": 0,
            "slot": "1",
            "type": "t_array(t_bool)3_storage"
          }
        ],
        "numberOfBytes": "64"
      },
      "t_uint256": {
        "encoding": "inplace",
        "label": "uint256",
        "numberOfBytes": "32"
      }
    }
  }
}